:100000000C942A000C9447000C9447000C94470071
:100010000C9447000C9447000C9447000C94470044
:100020000C9447000C9447000C94BB080C948E0869
:100030000C941A0A0C9447000C9447000C94470047
:100040000C94DE110C9447000C9447000C9447006C
:100050000C94470011241FBECFE5D8E0DEBFCDBF12
:1000600012E0A0E6B0E0E4E6FEE302C005900D92E7
:10007000AA31B107D9F712E0AAE1B2E001C01D929E
:10008000AF35B107E1F70E945C1B0C94301F0C9454
:100090000000EF92FF920F931F937B018C0120E0F1
:1000A00030E040E05FE40E94490388238CF0C801FF
:1000B000B70120E030E040E05FE40E94C1010E940F
:1000C00007049B01AC01205030404040504806C01E
:1000D000C801B7010E9407049B01AC01B901CA0124
:1000E0001F910F91FF90EF900895A0E0B0E0EBE733
:1000F000F0E00C94581CDC012B01FA019C91923029
:1001000008F439C1EB018881823008F433C194309E
:1001100069F4843009F02FC111969C91119789815F
:10012000981709F428C1AEEEB0E025C1843009F477
:1001300021C18230A9F4923009F01DC19A01AD01AC
:1001400088E0EA010990AE01E90109929E0181501F
:10015000C1F7E201898111969C918923818308C1AD
:10016000923009F407C112962D903C901397EB0141
:100170008A819B811496AD90BD90CD90DC901797AD
:10018000EC80FD800E811F819101281B390BB90184
:1001900037FF04C066277727621B730B6032710537
:1001A0000CF061C0121613066CF537014801062EDB
:1001B00004C096948794779467940A94D2F721E0C8
:1001C00030E040E050E004C0220F331F441F551FB1
:1001D0006A95D2F721503040404050402E213F21B7
:1001E00040235123211531054105510521F021E01E
:1001F00030E040E050E079018A01E628F72808293C
:1002000019293CC0232BD1F1260E371E350146019A
:10021000062E04C096948794779467940A94D2F734
:1002200021E030E040E050E004C0220F331F441FC3
:10023000551F6A95D2F721503040404050402A2146
:100240003B214C215D21211531054105510521F04E
:1002500021E030E040E050E059016A01A628B728CB
:10026000C828D9280BC0821593052CF01C01AA249C
:10027000BB24650103C0EE24FF24870111969C91E5
:10028000D20111968C91981709F445C0992339F041
:10029000A80197012A193B094C095D0906C0A6016E
:1002A00095012E193F09400B510B57FD08C01182D3
:1002B0003382228224833583468357831DC081E0A5
:1002C00081833382228288279927DC01821B930B4A
:1002D000A40BB50B84839583A683B7830DC0220F2F
:1002E000331F441F551F24833583468357838281E0
:1002F000938101979383828324813581468157813D
:10030000DA01C9010197A109B1098F5F9F4FAF4F72
:10031000BF4328F30BC0918333822282EA0CFB1C7B
:100320000C1D1D1DE482F5820683178383E0808304
:10033000248135814681578157FF1AC0C901AA27F8
:1003400097FDA095BA2F81709070A070B0705695EF
:10035000479537952795822B932BA42BB52B848318
:100360009583A683B7838281938101969383828349
:10037000DF0101C0D201CD01CDB7DEB7E2E10C94BF
:10038000741CA0E2B0E0E7ECF1E00C94641C69831B
:100390007A838B839C832D833E834F835887E9E048
:1003A000EE2EF12CEC0EFD1ECE010196B7010E943F
:1003B0007F058E010F5E1F4FCE010596B8010E948A
:1003C0007F058A8991E089278A8BC701B801AE0130
:1003D000475E5F4F0E9475000E94AA04A096E6E067
:1003E0000C94801CA0E2B0E0E8EFF1E00C94641CF7
:1003F00069837A838B839C832D833E834F835887C5
:10040000F9E0EF2EF12CEC0EFD1ECE010196B701A6
:100410000E947F058E010F5E1F4FCE010596B80129
:100420000E947F05C701B801AE01475E5F4F0E9481
:1004300075000E94AA04A096E6E00C94801CA0E23D
:10044000B0E0E5E2F2E00C94581C69837A838B8378
:100450009C832D833E834F835887CE010196BE0136
:10046000675F7F4F0E947F05CE010596BE016F5EDC
:100470007F4F0E947F059985923088F0898982306C
:10048000C8F0943019F4823051F404C0843029F457
:10049000923081F48EEE90E0C6C0923049F420E0B4
:1004A0009A858A89981321E02A87CE010996BBC0D4
:1004B000823049F420E09A858A89981321E02A8BBA
:1004C000CE014196B0C02D843E844F8458886D88FB
:1004D0007E888F88988CEE24FF248701AA24BB2471
:1004E000650140E050E060E070E0E0E0F0E0C10174
:1004F00081709070892BE9F0E60CF71C081D191D1E
:100500009A01AB012A0D3B1D4C1D5D1D80E090E062
:10051000A0E0B0E0E614F7040805190520F481E036
:1005200090E0A0E0B0E0BA01A901480F591F6A1F8E
:100530007B1FAA0CBB1CCC1CDD1C97FE08C081E0F5
:1005400090E0A0E0B0E0A82AB92ACA2ADB2A3196B6
:10055000E032F10549F0660C771C881C991C569412
:10056000479437942794C3CFFA85EA892B893C892D
:100570008B859C85280F391F2E5F3F4F17C0CA01FE
:1005800081709070892B61F016950795F794E79428
:1005900080E090E0A0E0B0E8E82AF92A0A2B1B2BC3
:1005A00076956795579547952F5F3F4F77FDE7CF36
:1005B0000CC0440F551F661F771F17FD4160EE0CDE
:1005C000FF1C001F111F21503040403090E05907A0
:1005D00090E0690790E4790760F32B8F3C8FDB0193
:1005E000CA018F779070A070B07080349105A1051A
:1005F000B10561F447FD0AC0E114F10401051105DC
:1006000029F0405C5F4F6F4F7F4F40781A8EFE1786
:1006100011F081E08A8F4D8F5E8F6F8F78A383E01A
:10062000898FCE0149960E94AA04A096E2E10C941B
:10063000741CA8E1B0E0EFE1F3E00C94641C698362
:100640007A838B839C832D833E834F83588789E0F5
:10065000E82EF12CEC0EFD1ECE010196B7010E9492
:100660007F058E010F5E1F4FCE010596B8010E94D7
:100670007F058985823040F08989823028F0C70162
:10068000B8010E94F70501C08FEF6896E6E00C9470
:10069000801CA8E1B0E0EFE4F3E00C94641C6983F3
:1006A0007A838B839C832D833E834F83588789E095
:1006B000E82EF12CEC0EFD1ECE010196B7010E9432
:1006C0007F058E010F5E1F4FCE010596B8010E9477
:1006D0007F058985823040F08989823028F0C70102
:1006E000B8010E94F70501C08FEF6896E6E00C9410
:1006F000801CA8E1B0E0EFE7F3E00C94641C698390
:100700007A838B839C832D833E834F83588789E034
:10071000E82EF12CEC0EFD1ECE010196B7010E94D1
:100720007F058E010F5E1F4FCE010596B8010E9416
:100730007F058985823040F08989823028F0C701A1
:10074000B8010E94F70501C081E06896E6E00C94CC
:10075000801CA8E0B0E0EFEAF3E00C94611C9B0180
:10076000AC0183E08983DA01C9018827B7FD83954D
:100770009927AA27BB27B82E211531054105510518
:1007800019F482E089833AC08823A9F0203080E000
:10079000380780E0480780E8580729F460E070E0F7
:1007A00080E09FEC30C0EE24FF248701E21AF30AB8
:1007B000040B150B02C079018A018EE1C82ED12CE1
:1007C000DC82CB82ED82FE820F831887C801B701DD
:1007D0000E945B0401971816190684F4082E04C0C1
:1007E000EE0CFF1C001F111F0A94D2F7ED82FE824F
:1007F0000F831887C81AD90ADC82CB82BA82CE014D
:1008000001960E94AA042896E9E00C947D1CACE0B5
:10081000B0E0EDE0F4E00C94681C69837A838B838C
:100820009C83CE010196BE016B5F7F4F0E947F05C6
:100830008D81823061F1823050F1843021F48E81DB
:10084000882351F12EC02F81388537FD20C06E815D
:100850002F3131051CF06623F9F023C08EE190E0C2
:10086000821B930B29853A854B855C8504C0569580
:100870004795379527958A95D2F76623B1F050951D
:100880004095309521953F4F4F4F5F4F0EC020E070
:1008900030E040E050E009C02FEF3FEF4FEF5FE75F
:1008A00004C020E030E040E050E8B901CA012C96D5
:1008B000E2E00C94841CEF92FF920F931F937B0154
:1008C0008C0180E0E81680E0F80681E0080780E00F
:1008D000180788F48FEFE816F1040105110531F0CF
:1008E00028F088E090E0A0E0B0E017C080E090E061
:1008F000A0E0B0E012C080E0E81680E0F80680E0FA
:10090000080781E0180728F088E190E0A0E0B0E057
:1009100004C080E190E0A0E0B0E020E230E040E000
:1009200050E0281B390B4A0B5B0B04C0169507954A
:10093000F794E7948A95D2F7F701EA50FF4F808148
:10094000281B310941095109C9011F910F91FF90DD
:10095000EF900895DF92EF92FF920F931F93FC01A7
:10096000E480F58006811781D1808081823048F44F
:1009700080E090E0A0E1B0E0E82AF92A0A2B1B2BE6
:10098000A5C0843009F49FC0823021F4EE24FF24F6
:10099000870105C0E114F1040105110519F4E0E037
:1009A000F0E096C0628173819FEF623879070CF0A6
:1009B0005BC022E83FEF261B370B2A3131052CF0B4
:1009C00020E030E040E050E02AC0B801A701022E4C
:1009D00004C076956795579547950A94D2F781E0BC
:1009E00090E0A0E0B0E004C0880F991FAA1FBB1FD1
:1009F0002A95D2F70197A109B1098E219F21A02341
:100A0000B1230097A105B10521F081E090E0A0E0BD
:100A1000B0E09A01AB01282B392B4A2B5B2BDA0172
:100A2000C9018F779070A070B07080349105A105D6
:100A3000B10539F427FF09C0205C3F4F4F4F5F4F8E
:100A400004C0215C3F4F4F4F5F4FE0E0F0E02030AB
:100A5000A0E03A07A0E04A07A0E45A0710F0E1E05E
:100A6000F0E079018A0127C06038710564F5FB0167
:100A7000E158FF4FD801C7018F779070A070B07018
:100A800080349105A105B10539F4E7FE0DC080E47D
:100A900090E0A0E0B0E004C08FE390E0A0E0B0E020
:100AA000E80EF91E0A1F1B1F17FF05C016950795B4
:100AB000F794E794319687E016950795F794E794B5
:100AC0008A95D1F705C0EE24FF248701EFEFF0E00F
:100AD0006E2F679566276795902F9F77D794DD24B3
:100AE000D7948E2F8695492F462B582F5D29B70115
:100AF000CA011F910F91FF90EF90DF900895FC01C4
:100B0000DB01408151812281622F6F7770E0221FCB
:100B10002227221F9381892F880F822B282F30E0D4
:100B2000991F9927991F11969C93119721153105AB
:100B3000A9F5411551056105710511F482E037C031
:100B400082E89FEF13969C938E9312979A01AB01C4
:100B500067E0220F331F441F551F6A95D1F783E0CA
:100B60008C930DC0220F331F441F551F12968D9179
:100B70009C911397019713969C938E931297203014
:100B800080E0380780E0480780E4580758F314965F
:100B90002D933D934D935C93179708952F3F310507
:100BA00079F4411551056105710519F484E08C93C0
:100BB000089564FF03C081E08C9312C01C9210C0A2
:100BC0002F57304013963C932E93129783E08C93CB
:100BD00087E0440F551F661F771F8A95D1F7706411
:100BE00014964D935D936D937C93179708951F937F
:100BF000DC01FB019C91923008F447C08081823077
:100C000008F443C0943051F411961C91843099F546
:100C10008181682F70E0611B71093FC0843021F031
:100C2000923031F48230B9F18181882389F12DC06D
:100C300011961C9111978230F1F081811817D9F427
:100C400012962D913C91139782819381821793077D
:100C500094F028173907BCF014968D919D910D9052
:100C6000BC91A02D248135814681578128173907F1
:100C70004A075B0718F4112341F00AC08217930753
:100C8000A407B50740F4112319F061E070E005C036
:100C90006FEF7FEF02C060E070E0CB011F9108951D
:100CA000DF93CF9300D0CDB7DEB79A838983A9E2D3
:100CB000B0E0E981FA8181818C93ABE2B0E0EBE2B4
:100CC000F0E080818D7F8C93A0E4B0E0E0E4F0E080
:100CD0009081E981FA818281892B8C93AAE2B0E02C
:100CE000EAE2F0E080818B7F8C93E981FA81828156
:100CF000863039F4AAE2B0E0EAE2F0E08081846074
:100D00008C93A0E4B0E0E0E4F0E09081E981FA8126
:100D10008381892B8C93A0E4B0E0E0E4F0E0908143
:100D2000E981FA818481892B8C93AAE2B0E0EAE21E
:100D3000F0E09081E981FA818581892B8C93E981AA
:100D4000FA818581882309F07894AAE2B0E0EAE28A
:100D5000F0E0808180618C93AAE2B0E0EAE2F0E00A
:100D6000808188608C930F900F90CF91DF910895D0
:100D7000DF93CF9300D00F92CDB7DEB79A838983EC
:100D80006B838B81882399F4EBE2F0E08081882FDC
:100D900090E080729070959587959595879595953B
:100DA00087959595879595958795009769F3EAE2DC
:100DB000F0E08081882F90E0847090709595879501
:100DC000959587950097F1F0AAE2B0E0EAE2F0E0AD
:100DD00080818E7F8C93E981FA818081882F90E0D9
:100DE00080709170009739F0AAE2B0E0EAE2F0E09A
:100DF000808181608C93ECE2F0E0A981BA818C91D2
:100E0000808306C0ECE2F0E0A981BA818C918083F6
:100E10000F900F900F90CF91DF910895DF93CF93B4
:100E200000D00F92CDB7DEB78B838B81882359F426
:100E3000EBE2F0E08081881F8827881F882F90E0F0
:100E400090700097A9F3EAE2F0E08081882F90E0AB
:100E5000847090709595879595958795009799F0F2
:100E6000EAE2F0E08081882F90E0827090709595A2
:100E700087959A838983ECE2F0E08081882F90E067
:100E80009A83898307C0ECE2F0E08081882F90E0AC
:100E90009A83898389819A810F900F900F90CF91C7
:100EA000DF910895DF93CF9300D0CDB7DEB79A835B
:100EB00089830AC089819A8160E00E94B80689818D
:100EC0009A8101969A838983E981FA8180818823B6
:100ED00089F70F900F90CF91DF910895DF93CF9313
:100EE00000D0CDB7DEB78AE192E09A83898380E0B3
:100EF0000E940E0780931A020BC089819A81019685
:100F00009A83898380E00E940E07E981FA818083B9
:100F1000E981FA8180818D3081F7E981FA8110823F
:100F20008AE192E00F900F90CF91DF910895DF93C7
:100F3000CF93CDB7DEB727970FB6F894DEBF0FBEBD
:100F4000CDBF9A83898389819A8120E532E03C83F1
:100F50002B839E838D8335E03F83ED81FE8100806E
:100F60002D813E812F5F3F4F3E832D83EB81FC819E
:100F700000822B813C812F5F3F4F3C832B833F813D
:100F800031503F838F81882341F7A3E5B0E0E3E54B
:100F9000F0E09081E981FA818081892B8C93E9814D
:100FA000FA818081883729F0E981FA818081883649
:100FB00029F481E063E041E00E94F10BA3E5B0E099
:100FC000E3E5F0E09081E981FA818181892B8C93BE
:100FD000E981FA818181863029F0E981FA81818174
:100FE000873029F481E060E040E00E94F10BA9E540
:100FF000B0E0E9E5F0E09081E981FA818281892B16
:101000008C93E981FA818281882309F07894E981BF
:10101000FA818381948190934D0280934C022796AC
:101020000FB6F894DEBF0FBECDBFCF91DF9108950C
:10103000DF93CF93CDB7DEB7A3E5B0E0E3E5F0E013
:101040008081887F8C93CF91DF910895DF93CF9338
:1010500000D0CDB7DEB79A838983E2E5F0E08081E6
:10106000E981FA8180830F900F90CF91DF910895ED
:10107000DF93CF930F92CDB7DEB78983ECE5F0E035
:10108000898180830F90CF91DF910895DF93CF9373
:101090000F92CDB7DEB78983809150028836D9F49C
:1010A000ECE5F0E08981482F50E0CA019C01220F55
:1010B000331FC9019695982F882797958795821B8E
:1010C000930B840F951F24E630E0B9010E940F1C9A
:1010D000CB0180831FC0809150028837D9F4ECE5A2
:1010E000F0E08981482F50E0CA019C01220F331F94
:1010F000C9019695982F882797958795821B930B02
:10110000840F951F24E630E0B9010E940F1CCB012B
:10111000809580830F90CF91DF9108951F920F9259
:101120000FB60F9211242F933F934F935F936F93BA
:101130007F938F939F93AF93BF93EF93FF93DF932F
:10114000CF93CDB7DEB7E0914C02F0914D020995F7
:10115000CF91DF91FF91EF91BF91AF919F918F91CF
:101160007F916F915F914F913F912F910F900FBEA3
:101170000F901F9018951F920F920FB60F92112487
:101180002F933F934F935F936F937F938F939F938F
:10119000AF93BF93EF93FF93DF93CF93CDB7DEB7BA
:1011A000E0914C02F0914D020995CF91DF91FF91B2
:1011B000EF91BF91AF919F918F917F916F915F91CF
:1011C0004F913F912F910F900FBE0F901F90189548
:1011D000DF93CF9300D0CDB7DEB79A838983EDE25A
:1011E000F0E01082EEE2F0E01082ADE2B0E0EDE27D
:1011F000F0E09081E981FA818081892B8C93E981EB
:10120000FA818081803121F5A7E3B0E0E7E3F0E0E7
:10121000808180618C93A7E3B0E0E7E3F0E0808118
:1012200080628C93A7E3B0E0E7E3F0E08081806820
:101230008C93A7E3B0E0E7E3F0E080818F7B8C93B1
:10124000A8E3B0E0E8E3F0E0808180618C9321C006
:10125000E981FA8180818823E1F4A7E3B0E0E7E344
:10126000F0E080818F7E8C93A7E3B0E0E7E3F0E0CD
:1012700080818F7D8C93A7E3B0E0E7E3F0E080818D
:101280008F778C93A7E3B0E0E7E3F0E080818064A0
:101290008C93ADE2B0E0EDE2F0E09081E981FA817B
:1012A0008181892B8C93AEE2B0E0EEE2F0E0908198
:1012B000E981FA818281892B8C93ADE2B0E0EDE285
:1012C000F0E09081E981FA818381892B8C93ADE2F2
:1012D000B0E0EDE2F0E09081E981FA818481892B30
:1012E0008C93ADE2B0E0EDE2F0E09081E981FA812B
:1012F0008581892B8C93ADE2B0E0EDE2F0E0908146
:10130000E981FA818681892B8C93E981FA81868132
:10131000803809F47894ADE2B0E0EDE2F0E080814D
:1013200080648C930F900F90CF91DF910895DF939D
:10133000CF93CDB7DEB7EDE2F0E01082EEE2F0E061
:101340001082CF91DF910895DF93CF9300D0CDB776
:10135000DEB79A838983A8E3B0E0E8E3F0E0808118
:101360008F7E8C93AFE2B0E0E981FA8180818C932B
:10137000EEE2F0E08081881F8827881F882F90E0A8
:1013800090700097A9F3A8E3B0E0E8E3F0E0808173
:1013900080618C930F900F90CF91DF910895DF9330
:1013A000CF9300D0CDB7DEB79A8389830AC08981F5
:1013B0009A8129813A812F5F3F4F3A8329830E9486
:1013C000A409E981FA818081882389F70F900F9021
:1013D000CF91DF910895DF93CF9300D0CDB7DEB7E3
:1013E0009A838983EFE2F0E0A981BA818C918083AE
:1013F000EEE2F0E08081881F8827881F882F90E028
:1014000090700097A9F3EFE2F0E08081E981FA8122
:1014100080830F900F90CF91DF910895DF93CF934A
:1014200000D0CDB7DEB79A8389830F900F90CF910C
:10143000DF9108951F920F920FB60F9211242F93F0
:101440003F934F935F936F937F938F939F93AF934C
:10145000BF93EF93FF93DF93CF93CDB7DEB7E091C8
:101460004E02F0914F020780F085E02D0995CF9153
:10147000DF91FF91EF91BF91AF919F918F917F91FC
:101480006F915F914F913F912F910F900FBE0F90F1
:101490001F9018950F931F93DF93CF9300D000D028
:1014A000CDB7DEB79A838983A1E2B0E0E1E2F0E054
:1014B0008081982F9C7FE981FA818281892B8C938E
:1014C000E981FA818281282F30E03C832B838B8154
:1014D0009C8181309105A9F1EB81FC81E230F1051D
:1014E00034F42B813C812115310571F08CC08B8146
:1014F0009C818230910509F445C0EB81FC81E33089
:10150000F10509F460C07FC000E210E0E981FA81D2
:101510008081282F30E040E050E080E092E1AAE7AF
:10152000B0E0BC01CD010E94221CDA01C901409744
:10153000A109B109B695A79597958795F80180837C
:1015400062C000E210E0E981FA818081282F30E05A
:1015500040E050E080E092E1AAE7B0E0BC01CD01BC
:101560000E94221CDA01C9014097A109B1096894BF
:1015700012F8B695A795979587951694D1F7F80127
:10158000808341C000E210E0E981FA818081282F48
:1015900030E040E050E080E092E1AAE7B0E0BC013A
:1015A000CD010E94221CDA01C9014097A109B109AD
:1015B000689414F8B695A795979587951694D1F7E2
:1015C000F801808320C000E210E0E981FA81808187
:1015D000282F30E040E050E080E092E1AAE7B0E060
:1015E000BC01CD010E94221CDA01C9014097A1096A
:1015F000B109689416F8B695A795979587951694AE
:10160000D1F7F8018083E981FA818681813039F44C
:10161000A6E5B0E0E6E5F0E0808181608C93A6E588
:10162000B0E0E6E5F0E0808184608C93E981FA81A6
:101630008381803441F4A6E5B0E0E6E5F0E0808106
:1016400080648C9307C0A6E5B0E0E6E5F0E0808119
:101650008F7B8C93E2E2F0E0A981BA8115968C91A0
:10166000159780830F900F900F900F90CF91DF917F
:101670001F910F910895DF93CF93CDB7DEB7E6E5C5
:10168000F0E084EA8083E6E5F0E080818823DCF7FF
:10169000CF91DF910895DF93CF93CDB7DEB7E6E525
:1016A000F0E084E98083E6E5F0E08081882F90E037
:1016B000807190700097B9F7CF91DF910895DF9313
:1016C000CF9300D0CDB7DEB79A838983A3E2B0E091
:1016D000E981FA8180818C93E6E5F0E084E88083FB
:1016E000E6E5F0E080818823DCF70F900F90CF9142
:1016F000DF910895DF93CF9300D0CDB7DEB79A8303
:101700008983E6E5F0E084EC8083E6E5F0E0808123
:101710008823DCF7E3E2F0E08081E981FA818083CD
:101720000F900F90CF91DF910895DF93CF9300D06A
:10173000CDB7DEB79A838983E6E5F0E084E880835D
:10174000E6E5F0E080818823DCF7E3E2F0E08081E9
:10175000E981FA8180830F900F90CF91DF910895F6
:10176000DF93CF930F92CDB7DEB78983E2E2F0E04B
:1017700089818083E6E5F0E084EC80830F90CF914F
:10178000DF910895DF93CF93CDB7DEB7E6E5F0E0C4
:1017900080818823DCF7CF91DF910895DF93CF9389
:1017A000CDB7DEB70E94C20BE3E2F0E08081CF91BB
:1017B000DF910895DF93CF930F92CDB7DEB7898382
:1017C000E3E2F0E089818083E6E5F0E084EC808369
:1017D000E6E5F0E080818823DCF70F90CF91DF9180
:1017E0000895DF93CF93CDB7DEB727970FB6F89460
:1017F000DEBF0FBECDBF89836A834B838B8181306F
:1018000009F06FC08981282F30E03F832E838E81BD
:101810009F818130910549F12E813F812230310530
:101820002CF48E819F81009761F0D2C02E813F8180
:101830002230310571F18E819F8183309105E9F16C
:10184000C7C0AAE3B0E0EAE3F0E08081482F8A81D4
:10185000282F30E081E090E0022E02C0880F991F0F
:101860000A94E2F7842B8C93B3C0A7E3B0E0E7E3DC
:10187000F0E08081482F8A81282F30E081E090E0DD
:10188000022E02C0880F991F0A94E2F7842B8C93D2
:101890009FC0A4E3B0E0E4E3F0E08081482F8A81B8
:1018A000282F30E081E090E0022E02C0880F991FBF
:1018B0000A94E2F7842B8C938BC0A1E3B0E0E1E3C0
:1018C000F0E08081482F8A81282F30E081E090E08D
:1018D000022E02C0880F991F0A94E2F7842B8C9382
:1018E00077C08B81882309F073C08981282F30E06D
:1018F0003D832C838C819D818130910559F12C8110
:101900003D81223031052CF48C819D81009769F056
:101910005FC02C813D812230310589F18C819D8110
:101920008330910509F440C053C0AAE3B0E0EAE374
:10193000F0E08081482F8A81282F30E081E090E01C
:10194000022E02C0880F991F0A94E2F78095842323
:101950008C933EC0A7E3B0E0E7E3F0E08081482F3E
:101960008A81282F30E081E090E0022E02C0880FAB
:10197000991F0A94E2F7809584238C9329C0A4E3ED
:10198000B0E0E4E3F0E08081482F8A81282F30E046
:1019900081E090E0022E02C0880F991F0A94E2F7BE
:1019A000809584238C9314C0A1E3B0E0E1E3F0E0E0
:1019B0008081482F8A81282F30E081E090E0022E3C
:1019C00002C0880F991F0A94E2F7809584238C93B4
:1019D00027960FB6F894DEBF0FBECDBFCF91DF9133
:1019E0000895DF93CF93CDB7DEB727970FB6F8945E
:1019F000DEBF0FBECDBF89836A834B838B8181306D
:101A000009F06FC08981282F30E03F832E838E81BB
:101A10009F818130910549F12E813F81223031052E
:101A20002CF48E819F81009761F0D2C02E813F817E
:101A30002230310571F18E819F8183309105E9F16A
:101A4000C7C0ABE3B0E0EBE3F0E08081482F8A81D0
:101A5000282F30E081E090E0022E02C0880F991F0D
:101A60000A94E2F7842B8C93B3C0A8E3B0E0E8E3D8
:101A7000F0E08081482F8A81282F30E081E090E0DB
:101A8000022E02C0880F991F0A94E2F7842B8C93D0
:101A90009FC0A5E3B0E0E5E3F0E08081482F8A81B4
:101AA000282F30E081E090E0022E02C0880F991FBD
:101AB0000A94E2F7842B8C938BC0A2E3B0E0E2E3BC
:101AC000F0E08081482F8A81282F30E081E090E08B
:101AD000022E02C0880F991F0A94E2F7842B8C9380
:101AE00077C08B81882309F073C08981282F30E06B
:101AF0003D832C838C819D818130910559F12C810E
:101B00003D81223031052CF48C819D81009769F054
:101B10005FC02C813D812230310589F18C819D810E
:101B20008330910509F440C053C0ABE3B0E0EBE370
:101B3000F0E08081482F8A81282F30E081E090E01A
:101B4000022E02C0880F991F0A94E2F78095842321
:101B50008C933EC0A8E3B0E0E8E3F0E08081482F3A
:101B60008A81282F30E081E090E0022E02C0880FA9
:101B7000991F0A94E2F7809584238C9329C0A5E3EA
:101B8000B0E0E5E3F0E08081482F8A81282F30E043
:101B900081E090E0022E02C0880F991F0A94E2F7BC
:101BA000809584238C9314C0A2E3B0E0E2E3F0E0DC
:101BB0008081482F8A81282F30E081E090E0022E3A
:101BC00002C0880F991F0A94E2F7809584238C93B2
:101BD00027960FB6F894DEBF0FBECDBFCF91DF9131
:101BE0000895DF93CF9300D000D00F92CDB7DEB72A
:101BF0008A836B8319828A81282F30E03D832C836E
:101C00004C815D8141305105B1F18C819D818230E3
:101C1000910534F42C813D812115310571F084C08A
:101C20004C815D814230510509F443C08C819D8116
:101C30008330910509F45BC077C0E9E3F0E080816F
:101C4000482F50E08B81282F30E081E090E002C0E7
:101C5000880F991F2A95E2F79A01282339238B814F
:101C6000882F90E0A90102C0559547958A95E2F723
:101C7000CA01898359C0E6E3F0E08081482F50E033
:101C80008B81282F30E081E090E002C0880F991FFF
:101C90002A95E2F79A01282339238B81882F90E037
:101CA000A90102C0559547958A95E2F7CA01898333
:101CB0003BC0E3E3F0E08081482F50E08B81282F88
:101CC00030E081E090E002C0880F991F2A95E2F78A
:101CD0009A01282339238B81882F90E0A90102C023
:101CE000559547958A95E2F7CA0189831DC0E0E3BF
:101CF000F0E08081482F50E08B81282F30E081E098
:101D000090E002C0880F991F2A95E2F79A012823D4
:101D100039238B81882F90E0A90102C05595479502
:101D20008A95E2F7CA01898389810F900F900F90FD
:101D30000F900F90CF91DF910895DF93CF9300D054
:101D400000D0CDB7DEB789836A838981282F30E040
:101D50003C832B838B819C818130910549F12B81C0
:101D60003C81223031052CF48B819C81009761F0FD
:101D70005AC02B813C812230310571F18B819C81CD
:101D800083309105E9F14FC0ABE3B0E0EBE3F0E065
:101D90008081482F8A81282F30E081E090E0022E58
:101DA00002C0880F991F0A94E2F784278C933BC0E6
:101DB000A8E3B0E0E8E3F0E08081482F8A81282F93
:101DC00030E081E090E0022E02C0880F991F0A9453
:101DD000E2F784278C9327C0A5E3B0E0E5E3F0E0C9
:101DE0008081482F8A81282F30E081E090E0022E08
:101DF00002C0880F991F0A94E2F784278C9313C0BE
:101E0000A2E3B0E0E2E3F0E08081482F8A81282F4E
:101E100030E081E090E0022E02C0880F991F0A9402
:101E2000E2F784278C930F900F900F900F90CF9133
:101E3000DF910895DF93CF9300D000D000D0CDB7CD
:101E4000DEB789836A838A81813099F58981282F59
:101E500030E03E832D838D819E8181309105D1F0CC
:101E60002D813E81223031052CF48D819E81009799
:101E700061F050C02D813E812230310581F08D818D
:101E80009E818330910581F045C0EAE3F0E08FEF59
:101E9000808340C0E7E3F0E08FEF80833BC0E4E362
:101EA000F0E08FEF808336C0E1E3F0E08FEF8083D6
:101EB00031C08A81882371F58981282F30E03C83E5
:101EC0002B838B819C8181309105C9F02B813C81D2
:101ED000223031052CF48B819C81009761F01AC06F
:101EE0002B813C812230310571F08B819C818330C4
:101EF000910569F00FC0EAE3F0E010820BC0E7E360
:101F0000F0E0108207C0E4E3F0E0108203C0E1E3F8
:101F1000F0E0108226960FB6F894DEBF0FBECDBF5C
:101F2000CF91DF910895DF93CF9300D000D000D000
:101F3000CDB7DEB789836A838A81813099F589813B
:101F4000282F30E03E832D838D819E818130910545
:101F5000D1F02D813E81223031052CF48D819E817E
:101F6000009761F050C02D813E812230310581F013
:101F70008D819E818330910581F045C0EBE3F0E0D7
:101F80008FEF808340C0E8E3F0E08FEF80833BC0B9
:101F9000E5E3F0E08FEF808336C0E2E3F0E08FEF1F
:101FA000808331C08A81882371F58981282F30E0B0
:101FB0003C832B838B819C8181309105C9F02B81DF
:101FC0003C81223031052CF48B819C81009761F09B
:101FD0001AC02B813C812230310571F08B819C81AC
:101FE0008330910569F00FC0EBE3F0E010820BC085
:101FF000E8E3F0E0108207C0E5E3F0E0108203C000
:10200000E2E3F0E0108226960FB6F894DEBF0FBE32
:10201000CDBFCF91DF910895DF93CF9300D000D053
:10202000CDB7DEB78A8319828A81282F30E03C83BE
:102030002B838B819C8181309105D1F02B813C8158
:10204000223031052CF48B819C81009761F01EC0F9
:102050002B813C812230310581F08B819C81833042
:10206000910581F013C0E9E3F0E0808189830EC01F
:10207000E6E3F0E08081898309C0E3E3F0E080815A
:10208000898304C0E0E3F0E08081898389810F9037
:102090000F900F900F90CF91DF910895DF93CF9322
:1020A00000D00F92CDB7DEB789838981282F30E029
:1020B0003B832A838A819B818130910501F12A81AA
:1020C0003B81223031052CF48A819B81009761F09D
:1020D00036C02A813B8122303105E1F08A819B8123
:1020E0008330910511F12BC0ABE3B0E0EBE3F0E0FE
:1020F0009081EBE3F0E0808189278C9320C0A8E3F6
:10210000B0E0E8E3F0E09081E8E3F0E08081892747
:102110008C9315C0A5E3B0E0E5E3F0E09081E5E342
:10212000F0E0808189278C930AC0A2E3B0E0E2E36B
:10213000F0E09081E2E3F0E0808189278C930F90BA
:102140000F900F90CF91DF910895DF93CF93CDB78C
:10215000DEB727970FB6F894DEBF0FBECDBF9A83C8
:10216000898389819A8125E532E03C832B839E8394
:102170008D8337E03F83ED81FE8100802D813E819C
:102180002F5F3F4F3E832D83EB81FC8100822B81AB
:102190003C812F5F3F4F3C832B833F8131503F83F6
:1021A0008F81882341F7A7E2B0E0E7E2F0E0908179
:1021B000E981FA818181892B8C93A7E2B0E0E7E283
:1021C000F0E09081E981FA818381892B8C93A7E2E9
:1021D000B0E0E7E2F0E09081E981FA818281892B29
:1021E0008C93A6E2B0E0E6E2F0E09081E981FA812A
:1021F0008481892B8C93E981FA818481883009F468
:102200007894A6E2B0E0E6E2F0E0808180688C930A
:10221000E981FA818081813039F4A6E2B0E0E6E21A
:10222000F0E0808180648C9327960FB6F894DEBF2F
:102230000FBECDBFCF91DF910895DF93CF93CDB780
:10224000DEB7E7E2F0E01082E6E2F0E01082A0E51F
:10225000B0E0E0E5F0E080818F718C93CF91DF9169
:102260000895DF93CF9300D000D0CDB7DEB7898338
:102270007B836A834C83A7E2B0E0E7E2F0E08081F1
:102280008E7F8C93A7E2B0E0E7E2F0E080818D7F63
:102290008C93A7E2B0E0E7E2F0E080818B7F8C9343
:1022A000A7E2B0E0E7E2F0E08081877F8C93A7E2CD
:1022B000B0E0E7E2F0E080818F7E8C93A7E2B0E0AF
:1022C000E7E2F0E090818981892B8C93AAE3B0E06A
:1022D000EAE3F0E08081482F8981282F30E081E017
:1022E00090E0022E02C0880F991F0A94E2F78095B1
:1022F00084238C9380915502882339F4A6E2B0E0C0
:10230000E6E2F0E0808180648C938C81882389F4FC
:10231000E6E2F0E08081882F90E0807190709595E2
:102320008795959587959595879595958795009728
:1023300079F3809158028823A9F4E4E2F0E08081E7
:10234000282F30E0E5E2F0E08081882F90E0837074
:102350009070982F8827822B932BEA81FB819183A1
:1023600080831EC0809158028032D1F4E4E2F0E014
:1023700080818295869586958370882F90E09C0158
:102380003070E5E2F0E08081882F90E0880F991F9F
:10239000880F991F822B932BEA81FB819183808385
:1023A000A6E2B0E0E6E2F0E080818F7E8C930F90B1
:1023B0000F900F900F90CF91DF9108951F920F9281
:1023C0000FB60F9211242F933F934F935F936F9308
:1023D0007F938F939F93AF93BF93EF93FF93DF937D
:1023E000CF93CDB7DEB7E0915A02F0915B02099529
:1023F000CF91DF91FF91EF91BF91AF919F918F911D
:102400007F916F915F914F913F912F910F900FBEF0
:102410000F901F901895DF93CF9300D000D00F92AC
:10242000CDB7DEB788E6898385E08A831B821D826B
:102430001C82CE0101960E9497070F900F900F907B
:102440000F900F90CF91DF910895DF93CF93CDB789
:10245000DEB789E00E944608CF91DF910895DF93AF
:10246000CF93CDB7DEB780E00E944608CF91DF91D1
:102470000895DF93CF9300D000D0CDB7DEB7698346
:102480007A838B839C838A8161E00E941A0F0F906C
:102490000F900F900F90CF91DF910895DF93CF931E
:1024A00000D000D00F92CDB7DEB769837A838B83DB
:1024B0009C834D838981813069F42A818D81882FA5
:1024C00090E0FC01E050FE4F9081822F692F0E9426
:1024D000930F0FC08981882361F42A818D81882F11
:1024E00090E0FC01EA50FE4F9081822F692F0E94FC
:1024F000930F0F900F900F900F900F90CF91DF914F
:102500000895DF93CF93CDB7DEB7A1E3B0E0E1E369
:10251000F0E08081807F8C93A1E3B0E0E1E3F0E024
:102520008081806F8C93E2E3F0E08FEF8083CF9126
:10253000DF910895DF93CF93CDB7DEB727970FB61E
:10254000F894DEBF0FBECDBF1C821B8237C1A2E351
:10255000B0E0E2E3F0E08081582F20911202309148
:10256000130281E090E002C0880F991F2A95E2F7DC
:10257000482F209114023091150281E090E002C0B2
:10258000880F991F2A95E2F7482B20911602309167
:10259000170281E090E002C0880F991F2A95E2F7A8
:1025A000482B209118023091190281E090E002C07E
:1025B000880F991F2A95E2F7842B852B8C93A2E331
:1025C000B0E0E2E3F0E08081482F8B819C81880FAE
:1025D000991FFC01EE5EFD4F2081318181E090E08A
:1025E000022E02C0880F991F0A94E2F78095842377
:1025F0008C931A821982D7C0E0E3F0E08081282F03
:1026000030E089819A81880F991FFC01E65FFD4FB8
:1026100080819181A90102C0559547958A95E2F77D
:10262000CA0181709070009709F0B8C0E0E3F0E053
:102630008081282F30E089819A81880F991FFC01C1
:10264000E65FFD4F80819181A90102C055954795B4
:102650008A95E2F7CA0181709070009739F38B81F7
:102660009C819F838E834E815F8141305105C1F1F2
:102670008E819F818230910534F44E815F814115B6
:10268000510571F08BC08E819F818230910509F4D4
:1026900047C04E815F814330510509F460C07EC060
:1026A00089819A81009719F457E35D838FC08981EE
:1026B0009A818130910519F484E38D8387C08981E3
:1026C0009A818230910519F491E39D837FC08981BD
:1026D0009A818330910509F061C04FE34D8376C044
:1026E00089819A81009719F458E35D836FC08981CD
:1026F0009A818130910519F485E38D8367C08981C2
:102700009A818230910519F492E39D835FC089819B
:102710009A818330910509F041C040E34D8356C052
:1027200089819A81009719F459E35D834FC08981AB
:102730009A818130910519F486E38D8347C08981A0
:102740009A818230910519F493E39D833FC089817A
:102750009A818330910511F54DE34D8337C089810E
:102760009A81009719F45FE25D8330C089819A8174
:102770008130910519F48AE28D8328C089819A817C
:102780008230910519F49DE29D8320C089819A8150
:102790008330910519F44BE24D8318C089819A81E9
:1027A00001969A83898389819A81843091050CF4FA
:1027B00023CF8B819C8101969C838B838B819C8111
:1027C000843091050CF4C3CE51E45D838D8127964E
:1027D0000FB6F894DEBF0FBECDBFCF91DF91089545
:1027E000DF93CF93CDB7DEB76C970FB6F894DEBF0B
:1027F0000FBECDBF80E090E0A0E0B0E4898F9A8F5B
:10280000AB8FBC8F698D7A8D8B8D9C8D20E030E0F5
:102810004AEF54E40E941F02DC01CB018D8B9E8B9A
:10282000AF8BB88F6D897E898F89988D20E030E0DD
:1028300040E85FE30E94790388232CF481E090E074
:102840009C8B8B8B3FC06D897E898F89988D20E012
:102850003FEF4FE757E40E94190318164CF5698DB6
:102860007A8D8B8D9C8D20E030E040E251E40E9417
:102870001F02DC01CB01BC01CD010E944900DC013B
:10288000CB019C8B8B8B0FC088EC90E09A8B898B53
:1028900089899A890197F1F79A8B898B8B899C8911
:1028A00001979C8B8B8B8B899C89009769F714C04F
:1028B0006D897E898F89988D0E944900DC01CB014A
:1028C0009C8B8B8B8B899C89988B8F878F85988924
:1028D0000197F1F7988B8F87A1E3B0E0E1E3F0E097
:1028E0008081806E8C93A2E3B0E0E2E3F0E080812F
:1028F0008F718C93EAE3F0E08FEF808380E090E0CB
:10290000A0E0B0E48B879C87AD87BE876B857C8514
:102910008D859E8520E030E04AEF54E40E941F023E
:10292000DC01CB018F839887A987BA876F8178856F
:1029300089859A8520E030E040E85FE30E947903D2
:1029400088232CF481E090E09E838D833FC06F81CB
:10295000788589859A8520E03FEF4FE757E40E940C
:10296000190318164CF56B857C858D859E8520E0B6
:1029700030E040E251E40E941F02DC01CB01BC01C7
:10298000CD010E944900DC01CB019E838D830FC0E5
:1029900088EC90E09C838B838B819C810197F1F77D
:1029A0009C838B838D819E8101979E838D838D81F6
:1029B0009E81009769F714C06F81788589859A8513
:1029C0000E944900DC01CB019E838D838D819E8115
:1029D0009A83898389819A810197F1F79A83898300
:1029E0000E94071588E30E94111586E00E941115C8
:1029F00080E80E9411158CE00E9411156C960FB6AC
:102A0000F894DEBF0FBECDBFCF91DF910895DF9365
:102A1000CF93CDB7DEB781E00E941115CF91DF9142
:102A20000895DF93CF93CDB7DEB72F970FB6F89405
:102A3000DEBF0FBECDBF8F870E945E17EBE3F0E0D5
:102A40008F858083A2E3B0E0E2E3F0E080818F75C0
:102A50008C9380E090E0A0E8BFE38B879C87AD87F4
:102A6000BE876B857C858D859E8520E030E04AEFB2
:102A700054E40E941F02DC01CB018F839887A98751
:102A8000BA876F81788589859A8520E030E040E8B3
:102A90005FE30E94790388232CF481E090E09E8319
:102AA0008D833FC06F81788589859A8520E03FEFCF
:102AB0004FE757E40E94190318164CF56B857C8587
:102AC0008D859E8520E030E040E251E40E941F02A7
:102AD000DC01CB01BC01CD010E944900DC01CB012E
:102AE0009E838D830FC088EC90E09C838B838B81C9
:102AF0009C810197F1F79C838B838D819E81019747
:102B00009E838D838D819E81009769F714C06F81AC
:102B1000788589859A850E944900DC01CB019E83D6
:102B20008D838D819E819A83898389819A81019782
:102B3000F1F79A8389830E94CB162F960FB6F894EB
:102B4000DEBF0FBECDBFCF91DF910895DF93CF934E
:102B5000CDB7DEB72F970FB6F894DEBF0FBECDBF4F
:102B60008F870E945E17EBE3F0E08F858083A2E3FE
:102B7000B0E0E2E3F0E080818F7D8C93A2E3B0E0EF
:102B8000E2E3F0E0808180688C9380E090E0A0E850
:102B9000BFE38B879C87AD87BE876B857C858D85E2
:102BA0009E8520E030E04AEF54E40E941F02DC01E1
:102BB000CB018F839887A987BA876F8178858985AC
:102BC0009A8520E030E040E85FE30E9479038823A3
:102BD0002CF481E090E09E838D833FC06F817885E7
:102BE00089859A8520E03FEF4FE757E40E9419035B
:102BF00018164CF56B857C858D859E8520E030E030
:102C000040E251E40E941F02DC01CB01BC01CD0176
:102C10000E944900DC01CB019E838D830FC088ECAC
:102C200090E09C838B838B819C810197F1F79C833F
:102C30008B838D819E8101979E838D838D819E8163
:102C4000009769F714C06F81788589859A850E94FD
:102C50004900DC01CB019E838D838D819E819A8307
:102C6000898389819A810197F1F79A8389830E94E8
:102C7000CB162F960FB6F894DEBF0FBECDBFCF9107
:102C8000DF910895DF93CF9300D000D0CDB7DEB7AA
:102C90009C838B831A82198243C089819A81019611
:102CA0009A838983EB81FC8120818B819C810196B1
:102CB0009C838B83822F0E94A61589819A81803103
:102CC000910539F482E090E060E070E00E948C179A
:102CD00027C089819A818032910539F483E090E0A0
:102CE00060E070E00E948C171BC089819A8180335C
:102CF000910539F484E090E060E070E00E948C1768
:102D00000FC089819A818034910554F00E94071583
:102D100081E090E060E070E00E948C171A821982D6
:102D2000EB81FC818081882309F0B7CF0F900F9051
:102D30000F900F90CF91DF910895DF93CF9300D044
:102D400000D0CDB7DEB79A8389837C836B8317C0AD
:102D50008B819C8101969C838B838B819C819923A1
:102D60004CF0E981FA8180810E94A6158B81805800
:102D70000E94111589819A8101969A838983E9813C
:102D8000FA818081882321F70F900F900F900F9088
:102D9000CF91DF910895DF93CF93CDB7DEB72E9714
:102DA0000FB6F894DEBF0FBECDBFA2E3B0E0E2E302
:102DB000F0E0808180648C9380E090E0A0E8BFE345
:102DC0008B879C87AD87BE876B857C858D859E852F
:102DD00020E030E04AEF54E40E941F02DC01CB0106
:102DE0008F839887A987BA876F81788589859A8527
:102DF00020E030E040E85FE30E94790388232CF470
:102E000081E090E09E838D833FC06F8178858985C6
:102E10009A8520E03FEF4FE757E40E941903181608
:102E20004CF56B857C858D859E8520E030E040E209
:102E300051E40E941F02DC01CB01BC01CD010E94C4
:102E40004900DC01CB019E838D830FC088EC90E0AC
:102E50009C838B838B819C810197F1F79C838B836F
:102E60008D819E8101979E838D838D819E810097A8
:102E700069F714C06F81788589859A850E94490019
:102E8000DC01CB019E838D838D819E819A83898312
:102E900089819A810197F1F79A838983A2E3B0E04F
:102EA000E2E3F0E080818F7B8C932E960FB6F8944E
:102EB000DEBF0FBECDBFCF91DF910895DF93CF93DB
:102EC00000D0CDB7DEB7EAE3F0E08081EAE3F0E0DE
:102ED0001082A2E3B0E0E2E3F0E0808180628C93B4
:102EE000A2E3B0E0E2E3F0E080818F778C930E9470
:102EF000CB16EAE3F0E08081EAE3F0E08FEF808335
:102F0000A2E3B0E0E2E3F0E080818F7D8C930F904C
:102F10000F90CF91DF910895DF93CF9300D000D031
:102F2000CDB7DEB79A8389837C836B8389819A814D
:102F30008130910551F48B819C818031910588F518
:102F40008B8180580E9411152CC089819A81823012
:102F5000910551F48B819C818031910510F58B8115
:102F600080540E9411151DC089819A81833091057A
:102F700051F48B819C818031910598F48B8180572D
:102F80000E9411150EC089819A818430910549F4FF
:102F90008B819C818031910520F48B8180530E942C
:102FA00011150F900F900F900F90CF91DF91089512
:102FB000DF93CF93CDB7DEB728970FB6F894DEBF77
:102FC0000FBECDBF98878F8300D000D000D0EDB763
:102FD000FEB73196CE0101969183808380E690E022
:102FE000938382838F819885958384830E948F1C2D
:102FF0008DB79EB706960FB6F8949EBF0FBE8DBFD5
:10300000CE0101960E94421628960FB6F894DEBFB4
:103010000FBECDBFCF91DF910895DF93CF93CDB792
:10302000DEB7A8970FB6F894DEBF0FBECDBF6F8F87
:1030300078A389A39AA36F8D78A189A19AA120E092
:1030400030E040E050E00E94790388232CF423E62E
:1030500030E038A72FA304C045E650E058A74FA39F
:103060008FA198A59E878D876F8D78A189A19AA140
:1030700020E030E040E050E00E947903882364F4CF
:103080008F8D98A1A9A1BAA19C01AD0150582BA385
:103090003CA34DA35EA308C08F8D98A1A9A1BAA19E
:1030A0008BA39CA3ADA3BEA32BA13CA14DA15EA16C
:1030B00029873A874B875C8769857A858B859C85CC
:1030C0000E940704DC01CB0198878F838F8198854C
:1030D000AA2797FDA095BA2FBC01CD010E94A90394
:1030E0009B01AC0169857A858B859C850E94C10115
:1030F000DC01CB018B839C83AD83BE836B817C81A0
:103100008D819E8120E030E44CE156E40E941F0254
:10311000DC01CB01BC01CD010E940704DC01CB0125
:103120009A8389834DB75EB74A5050400FB6F894E2
:103130005EBF0FBE4DBFEDB7FEB73196CE010F9605
:103140009183808386E690E0938382838D859E853C
:10315000958384838F8198859783868389819A81DB
:10316000918780870E948F1C8DB79EB70A960FB6F5
:10317000F8949EBF0FBE8DBFCE010F960E944216DF
:10318000A8960FB6F894DEBF0FBECDBFCF91DF91EA
:103190000895DF93CF93CDB7DEB70E94071582E085
:1031A00090E061E070E00E948C1780E790E00E9460
:1031B000421683E090E062E070E00E948C1780E8A5
:1031C00090E00E9442160E946E0790935D028093E9
:1031D0005C0284E090E066E070E00E948C178091D1
:1031E0005C0290915D020E9442160E940319809138
:1031F0005E02813319F40E941E1902C00E94CA198E
:10320000CF91DF910895DF93CF93CDB7DEB781E003
:1032100062E041E00E94F10C80915C0290915D02BD
:103220000E94CF0981E062E040E00E94F10C8EE54F
:1032300092E00E94EB09CF91DF910895DF93CF9345
:10324000CDB7DEB72E970FB6F894DEBF0FBECDBF59
:1032500082E061E041E00E94F10C0E94251280E0D2
:1032600090E0A8E4B3E48B879C87AD87BE876B852D
:103270007C858D859E8520E030E04AEF54E40E94F5
:103280001F02DC01CB018F839887A987BA876F81E2
:10329000788589859A8520E030E040E85FE30E94E8
:1032A000790388232CF481E090E09E838D833FC0D6
:1032B0006F81788589859A8520E03FEF4FE757E455
:1032C0000E94190318164CF56B857C858D859E85AB
:1032D00020E030E040E251E40E941F02DC01CB011B
:1032E000BC01CD010E944900DC01CB019E838D838E
:1032F0000FC088EC90E09C838B838B819C8101972D
:10330000F1F79C838B838D819E8101979E838D83B2
:103310008D819E81009769F714C06F8178858985BA
:103320009A850E944900DC01CB019E838D838D81AB
:103330009E819A83898389819A810197F1F79A8383
:10334000898382E061E040E00E94F10C0E94071551
:103350008FE890E00E94421683E090E062E070E027
:103360000E948C178FE990E00E944216E6E3F0E09D
:103370008081882F90E0817090708823B9F70E9437
:103380002F122E960FB6F894DEBF0FBECDBFCF9191
:10339000DF910895DF93CF93CDB7DEB72E970FB6A9
:1033A000F894DEBF0FBECDBF82E062E041E00E9434
:1033B000F10C0E94671A0E94071582E090E061E01C
:1033C00070E00E948C178DEA90E00E94421680E027
:1033D00090E0A8E4B3E48B879C87AD87BE876B85BC
:1033E0007C858D859E8520E030E04AEF54E40E9484
:1033F0001F02DC01CB018F839887A987BA876F8171
:10340000788589859A8520E030E040E85FE30E9476
:10341000790388232CF481E090E09E838D833FC064
:103420006F81788589859A8520E03FEF4FE757E4E3
:103430000E94190318164CF56B857C858D859E8539
:1034400020E030E040E251E40E941F02DC01CB01A9
:10345000BC01CD010E944900DC01CB019E838D831C
:103460000FC088EC90E09C838B838B819C810197BB
:10347000F1F79C838B838D819E8101979E838D8341
:103480008D819E81009769F714C06F817885898549
:103490009A850E944900DC01CB019E838D838D813A
:1034A0009E819A83898389819A810197F1F79A8312
:1034B000898382E062E040E00E94F10C2E960FB614
:1034C000F894DEBF0FBECDBFCF91DF910895DF939B
:1034D000CF93CDB7DEB72E970FB6F894DEBF0FBEF1
:1034E000CDBF82E060E041E00E94F10C80E090E01E
:1034F000A8E4B3E48B879C87AD87BE876B857C850A
:103500008D859E8520E030E04AEF54E40E941F0242
:10351000DC01CB018F839887A987BA876F81788573
:1035200089859A8520E030E040E85FE30E947903D6
:1035300088232CF481E090E09E838D833FC06F81CF
:10354000788589859A8520E03FEF4FE757E40E9410
:10355000190318164CF56B857C858D859E8520E0BA
:1035600030E040E251E40E941F02DC01CB01BC01CB
:10357000CD010E944900DC01CB019E838D830FC0E9
:1035800088EC90E09C838B838B819C810197F1F781
:103590009C838B838D819E8101979E838D838D81FA
:1035A0009E81009769F714C06F81788589859A8517
:1035B0000E944900DC01CB019E838D838D819E8119
:1035C0009A83898389819A810197F1F79A83898304
:1035D00082E060E040E00E94F10C2E960FB6F89475
:1035E000DEBF0FBECDBFCF91DF910895DF93CF93A4
:1035F000CDB7DEB781E062E041E00E94F10B82E0EE
:1036000061E041E00E94F10B82E062E041E00E9453
:10361000F10B82E060E041E00E94F10B81E060E0AC
:1036200040E00E94F10BCF91DF910895DF93CF939B
:10363000CDB7DEB728970FB6F894DEBF0FBECDBF6B
:1036400080E1898383E38A8386E08B831C821D82E9
:103650001E8218861F82CE0101960E94500628966F
:103660000FB6F894DEBF0FBECDBFCF91DF910895A6
:10367000DF93CF93CDB7DEB729970FB6F894DEBFAF
:103680000FBECDBF81E08A831C8284E08E8388E0F8
:103690008D8381E08B8319821F8219861886CE0163
:1036A00001960E94E80829960FB6F894DEBF0FBE77
:1036B000CDBFCF91DF910895DF93CF93CDB7DEB724
:1036C0002E970FB6F894DEBF0FBECDBF0E94161B1B
:1036D0000E94381B0E940B120E94F0130E94F61ADF
:1036E0000E94071581E090E063E070E00E948C1773
:1036F0008DEB90E00E94421682E090E061E070E085
:103700000E948C1788EC90E00E94421683E090E0C3
:1037100062E070E00E948C1788ED90E00E944216F3
:1037200084E090E065E070E00E948C1786EE90E007
:103730000E94421680E090E0A6E9B3E48B879C8764
:10374000AD87BE876B857C858D859E8520E030E0CA
:103750004AEF54E40E941F02DC01CB018F8398875B
:10376000A987BA876F81788589859A8520E030E0BE
:1037700040E85FE30E94790388232CF481E090E025
:103780009E838D833FC06F81788589859A8520E0EF
:103790003FEF4FE757E40E94190318164CF56B856D
:1037A0007C858D859E8520E030E040E251E40E94DA
:1037B0001F02DC01CB01BC01CD010E944900DC01EC
:1037C000CB019E838D830FC088EC90E09C838B831C
:1037D0008B819C810197F1F79C838B838D819E81E6
:1037E00001979E838D838D819E81009769F714C018
:1037F0006F81788589859A850E944900DC01CB011B
:103800009E838D838D819E819A83898389819A810C
:103810000197F1F79A8389830E94C918FDCF97FB1E
:10382000092E07260AD077FD04D02ED006D000201E
:103830001AF4709561957F4F0895F6F790958195EC
:103840009F4F0895A1E21A2EAA1BBB1BFD010DC0BC
:10385000AA1FBB1FEE1FFF1FA217B307E407F50740
:1038600020F0A21BB30BE40BF50B661F771F881F1C
:10387000991F1A9469F760957095809590959B01B2
:10388000AC01BD01CF010895AA1BBB1B51E107C0CC
:10389000AA1FBB1FA617B70710F0A61BB70B881FE0
:1038A000991F5A95A9F780959095BC01CD0108956F
:1038B0002F923F924F925F926F927F928F929F9240
:1038C000AF92BF92CF92DF92EF92FF920F931F932E
:1038D000CF93DF93CDB7DEB7CA1BDB0B0FB6F894DF
:1038E000DEBF0FBECDBF09942A88398848885F841F
:1038F0006E847D848C849B84AA84B984C884DF8090
:10390000EE80FD800C811B81AA81B981CE0FD11D73
:103910000FB6F894DEBF0FBECDBFED010895AEE047
:10392000B0E0E5E9FCE10C94661C0D891E8986E097
:103930008C831A8309838FEF9FE79E838D839E017B
:10394000275E3F4FCE0101966F89788DA9010E94B5
:10395000B31C2F813885020F131FF80110822E9699
:10396000E4E00C94821CABE0B0E0E9EBFCE10C94E9
:10397000581C3C012B015A01FC01178216828381DD
:1039800081FD03C06FEF7FEFC6C19AE0892E1E0153
:103990000894211C311CF3012381F20123FD859140
:1039A00023FF81912F01882309F4B2C1853239F4B4
:1039B00023FD859123FF81912F01853229F490E029
:1039C000B3010E94A61EE7CF982FFF24EE2499246E
:1039D000FFE1FF15D0F09B3269F09C3228F4903261
:1039E00059F0933291F40EC09D3249F0903369F44E
:1039F00041E024C052E0F52A84E0F82A28C098E08B
:103A0000F92A25C0E0E1FE2A22C0F7FC29C0892F4F
:103A100080538A3070F4F6FE05C0989C902C1124D7
:103A2000980E15C0E89CE02C1124E80EF0E2FF2A65
:103A30000EC09E3229F4F6FC6BC140E4F42A07C0A4
:103A40009C3619F450E8F52A02C0983649F4F20180
:103A500023FD959123FF91912F01992309F0B8CF70
:103A6000892F8554833018F08052833038F444E035
:103A700050E0A40EB51E5FE359830FC0933631F0BA
:103A8000933779F0933509F056C020C0F501808155
:103A9000898342E050E0A40EB51E610101E010E010
:103AA00012C0F501C080D180F6FC03C06FEF7FEF3C
:103AB00002C0692D70E042E050E0A40EB51EC601C0
:103AC0000E949B1E8C015FE7F52214C0F501C080A7
:103AD000D180F6FC03C06FEF7FEF02C0692D70E06C
:103AE00042E050E0A40EB51EC6010E94901E8C015B
:103AF00050E8F52AF3FE07C01AC080E290E0B30157
:103B00000E94A61EEA948E2D90E008171907A8F3CC
:103B10000EC0F601F7FC8591F7FE81916F0190E0F0
:103B2000B3010E94A61EE110EA9401501040011555
:103B3000110579F7EAC0943611F0993669F5F7FE68
:103B400008C0F501208131814281538184E090E0F9
:103B50000AC0F501808191819C01442737FD409581
:103B6000542F82E090E0A80EB91E9FE6F92257FF7D
:103B700009C050954095309521953F4F4F4F5F4F6D
:103B8000E0E8FE2ACA01B901A1012AE030E00E9462
:103B9000D21ED82ED21840C0953729F41F2D1F7E73
:103BA0002AE030E01DC01F2D197F9F3661F090374D
:103BB00020F4983509F0ACC00FC0903739F0983731
:103BC00009F0A6C004C028E030E00AC0106114FD6E
:103BD000146020E130E004C014FD166020E132E002
:103BE00017FF08C0F501608171818281938144E0F3
:103BF00050E008C0F50180819181BC0180E090E037
:103C000042E050E0A40EB51EA1010E94D21ED82EA3
:103C1000D2188FE7F82EF122F6FE0BC05EEFF522E8
:103C2000D91438F4F4FE07C0F2FC05C08FEEF82278
:103C300002C01D2D01C0192DF4FE0DC0FE01ED0DB9
:103C4000F11D8081803319F499EEF92208C01F5FBD
:103C5000F2FE05C003C08F2D867809F01F5F0F2D7F
:103C6000F3FC14C0F0FE0FC01E1510F09D2C0BC00D
:103C70009D2C9E0C911A1E2D06C080E290E0B3018F
:103C80000E94A61E1F5F1E15C0F304C01E1510F46F
:103C9000E11A01C0EE2404FF0FC080E390E0B301FD
:103CA0000E94A61E02FF1DC001FD03C088E790E030
:103CB0000EC088E590E00BC0802F867891F001FF60
:103CC00002C08BE201C080E2F7FC8DE290E0B3011C
:103CD0000E94A61E06C080E390E0B3010E94A61ECB
:103CE0009A94D914C0F3DA94F101ED0DF11D80819D
:103CF00090E0B3010E94A61EDD20A9F706C080E275
:103D000090E0B3010E94A61EEA94EE20C1F743CED4
:103D1000F30166817781CB012B96E2E10C94741C50
:103D2000FC010590615070400110D8F78095909586
:103D30008E0F9F1F0895FC0161507040019001108B
:103D4000D8F7809590958E0F9F1F08950F931F931E
:103D5000CF93DF938C01EB018B8181FF1BC082FF2E
:103D60000DC02E813F818C819D812817390764F415
:103D7000E881F9810193F983E88306C0E885F98534
:103D8000802F0995892B31F48E819F8101969F8325
:103D90008E8302C00FEF1FEFC801DF91CF911F91FB
:103DA0000F910895FA01AA27283051F1203181F1AD
:103DB000E8946F936E7F6E5F7F4F8F4F9F4FAF4F33
:103DC000B1E03ED0B4E03CD0670F781F891F9A1F46
:103DD000A11D680F791F8A1F911DA11D6A0F711DFA
:103DE000811D911DA11D20D009F468943F912AE006
:103DF000269F11243019305D3193DEF6CF010895EE
:103E0000462F4770405D4193B3E00FD0C9F7F6CF1E
:103E1000462F4F70405D4A3318F0495D31FD4052E6
:103E2000419302D0A9F7EACFB4E0A695979587957C
:103E300077956795BA95C9F700976105710508955B
:103E40009B01AC010A2E0694579547953795279507
:103E5000BA95C9F7620F731F841F951FA01D08959F
:043E6000F894FFCF04
:103E64002564002D0000247325642E25303464005D
:103E7400506C6561736520456E7465722049440019
:103E8400496E20436172642052656164657200204A
:103E940047617465204973204F70656E6564006DD9
:103EA4006F766520796F75722063617200556E615B
:103EB4007574686F72697A65642049440057656C4B
:103EC400636F6D6520696E004D6F68616D65642078
:103ED40042656C616C277300536D6172742050727B
:103EE4006976617465005061726B696E67000000E9
:103EF40000000000000000010202030303030404A5
:103F04000404040404040505050505050505050563
:103F14000505050505050606060606060606060643
:103F2400060606060606060606060606060606062D
:103F34000606060606060707070707070707070713
:103F440007070707070707070707070707070707FD
:103F540007070707070707070707070707070707ED
:103F640007070707070707070707070707070707DD
:103F740007070707070708080808080808080808C3
:103F840008080808080808080808080808080808AD
:103F9400080808080808080808080808080808089D
:103FA400080808080808080808080808080808088D
:103FB400080808080808080808080808080808087D
:103FC400080808080808080808080808080808086D
:103FD400080808080808080808080808080808085D
:103FE400080808080808080808080808080808084D
:103FF400080808080808C0F9A4B0999282F88090CB
:104004003F065B4F666D7D077F6F00000100020075
:0A4014000300040005000600070089
:00000001FF
