:020000040800F2
:1000000000280020F91100084912000849120008D0
:1000100049120008491200084912000800000000B7
:10002000000000000000000000000000491200086D
:100030004912000800000000491200084912000897
:100040004912000849120008491200084912000824
:100050004912000849120008690500088D050008CA
:10006000B1050008D5050008F90500084912000887
:1000700049120008491200084912000849120008F4
:1000800049120008491200084912000849120008E4
:100090004912000849120008491200081D0600080C
:1000A00049120008491200084912000849120008C4
:1000B000491200084912000849120008910F00086F
:1000C0009D0F000849120008491200083910000865
:1000D00095100008F110000805110008191100081A
:1000E000C506000849120008000000004912000877
:1000F0004912000849120008491200084912000874
:100100004912000849120008491200084912000863
:100110004912000849120008491200084912000853
:100120004912000849120008491200084912000843
:1001300010B5054C237833B9044B13B10448AFF321
:1001400000800123237010BD0C000020000000007F
:100150009412000808B5034B1BB103490348AFF3E1
:10016000008008BD0000000010000020941200086C
:1001700080B582B000AF0223BB800423BB71012392
:10018000FB713B1D19462A4800F0B6FB0423BB80D7
:100190003B1D1946264800F0AFFB0823BB803B1DE2
:1001A0001946234800F0A8FB1023BB803B1D1946CD
:1001B0001F4800F0A1FB2023BB803B1D19461C48B3
:1001C00000F09AFB4023BB803B1D1946184800F005
:1001D00093FB8023BB803B1D1946154800F08CFB28
:1001E00001220221124800F006FC012204211048DD
:1001F00000F001FC012208210D4800F0FCFB012267
:1002000010210B4800F0F7FB01222021084800F0E4
:10021000F2FB01224021064800F0EDFB0122802183
:10022000034800F0E8FB00BF0837BD4680BD00BFB3
:100230000008014080B485B000AF78600023FB6007
:100240000BE00023BB6002E0BB680133BB60BB680E
:10025000FE2BF9D9FB680133FB60FA687B689A4290
:10026000EFD300BF00BF1437BD4680BC704700000D
:1002700080B582B000AF1420FFF7DCFF0423BB7110
:100280000123FB714FF40053BB803B1D19463F48CF
:1002900000F032FB4FF48043BB803B1D19463B48C6
:1002A00000F02AFB4FF40043BB803B1D1946374842
:1002B00000F022FB0423BB710123FB714FF4805338
:1002C000BB803B1D1946324800F016FB4FF400532B
:1002D000BB803B1D19462E4800F00EFB4FF48043B7
:1002E000BB803B1D19462A4800F006FB4FF4004333
:1002F000BB803B1D1946264800F0FEFA00224FF451
:100300000051224800F077FB00224FF400411F48C3
:1003100000F071FB00224FF480411C4800F06BFBA1
:100320000F20FFF787FF00F035F84FF48073BB8094
:100330003B1D1946164800F0DFFA4FF40073BB80EE
:100340003B1D1946124800F0D7FA4FF48063BB807A
:100350003B1D19460E4800F0CFFA4FF40063BB80F6
:100360003B1D19460A4800F0C7FA382000F01AF879
:10037000062000F017F8802000F014F80F2000F09D
:1003800011F800BF0837BD4680BD00BF0010014016
:10039000000C014080B500AF012000F003F800BF61
:1003A00080BD000080B582B000AF0346FB71FB79D1
:1003B00003F00103DBB21A464FF480712E4800F0BF
:1003C0001AFBFB7903F00203DBB21A464FF400710B
:1003D000294800F010FBFB7903F00403DBB21A4656
:1003E0004FF48061244800F006FBFB7903F008031A
:1003F000DBB21A464FF400611F4800F0FCFAFB79AB
:1004000003F01003DBB21A464FF480511A4800F093
:10041000F2FAFB7903F02003DBB21A464FF40051E5
:10042000154800F0E8FAFB7903F04003DBB21A4606
:100430004FF48041104800F0DEFAFB7923F07F038F
:10044000DBB21A464FF400410B4800F0D4FA002208
:100450004FF48041094800F0CEFA00224FF40041E9
:10046000064800F0C8FA0120FFF7E4FE00F008F8A3
:1004700000BF0837BD4680BD000C014000100140A0
:1004800080B500AF01224FF40051074800F0B3FAE5
:100490000A20FFF7CFFE00224FF40051024800F07F
:1004A000AAFA00BF80BD00BF0010014080B582B035
:1004B00000AF4FF40073BB800423BB710123FB71B9
:1004C0003B1D19461B4800F017FA4FF48063BB80B0
:1004D0003B1D1946174800F00FFA4FF40063BB802C
:1004E0003B1D1946134800F007FA4FF48053BB80B8
:1004F0003B1D19460F4800F0FFF94FF40053BB8035
:100500003B1D19460B4800F0F7F94FF48043BB80C0
:100510003B1D1946074800F0EFF94FF40043BB803C
:100520003B1D1946034800F0E7F900BF0837BD46F8
:1005300080BD00BF0008014080B582B000AF034617
:10054000FB71FB79064AD35C9BB25B029BB21946F6
:10055000044800F067FA00BF0837BD4680BD00BF01
:10056000000000200008014080B500AF054B5B692A
:10057000044A43F001035361034B1B68984700BFD3
:1005800080BD00BF000401402800002080B500AFFE
:10059000054B5B69044A43F002035361034B5B68FC
:1005A000984700BF80BD00BF000401402800002024
:1005B00080B500AF054B5B69044A43F00403536107
:1005C000034B9B68984700BF80BD00BF00040140FB
:1005D0002800002080B500AF054B5B69044A43F05A
:1005E00008035361034BDB68984700BF80BD00BF21
:1005F000000401402800002080B500AF054B5B6976
:10060000044A43F010035361034B1B69984700BF32
:1006100080BD00BF000401402800002080B500AF6D
:10062000264B5B6903F02003002B08D0234B5B694A
:10063000224A43F020035361214B5B6998471F4BCB
:100640005B6903F04003002B08D01C4B5B691B4A1D
:1006500043F0400353611A4B9B699847174B5B6902
:1006600003F08003002B08D0144B5B69134A43F05E
:1006700080035361124BDB699847104B5B6903F4AD
:100680008073002B08D00D4B5B690C4A43F48073D8
:1006900053610B4B1B6A9847084B5B6903F400736B
:1006A000002B08D0054B5B69044A43F40073536187
:1006B000034B5B6A984700BF80BD00BF0004014048
:1006C0002800002080B500AF2D4B5B6903F48063E8
:1006D000002B08D02A4B5B69294A43F4806353619D
:1006E000284B9B6A9847264B5B6903F40063002BF9
:1006F00008D0234B5B69224A43F400635361214BCA
:10070000DB6A98471E4B5B6903F48053002B08D0CB
:100710001B4B5B691A4A43F480535361194B1B6BA3
:100720009847174B5B6903F40053002B08D0144B18
:100730005B69134A43F400535361124B5B6B984758
:100740000F4B5B6903F48043002B08D00C4B5B69B3
:100750000B4A43F4804353610A4B9B6B9847084B09
:100760005B6903F40043002B08D0054B5B69044A26
:1007700043F400435361034BDB6B984700BF80BDDC
:10078000000401402800002080B483B000AF03467D
:10079000FB80FB88B3F5004F00F0A580B3F5004F58
:1007A00000F3A380B3F5804F00F09B80B3F5804F3A
:1007B00000F39B80B3F5005F00F09180B3F5005F1C
:1007C00000F39380B3F5805F00F08780B3F5805F1E
:1007D00000F38B80B3F5006F7DD0B3F5006F00F3AD
:1007E0008480B3F5806F74D0B3F5806F7DDCB3F592
:1007F000007F6CD0B3F5007F77DCB3F5807F64D0E9
:10080000B3F5807F71DC802B5DD0802B6DDC202BDD
:1008100048DC002B69DD013B1F2B66D801A252F892
:1008200023F000BFAB080008AF080008EB08000881
:10083000B3080008EB080008EB080008EB08000804
:10084000B7080008EB080008EB080008EB080008F0
:10085000EB080008EB080008EB080008EB080008AC
:10086000BB080008EB080008EB080008EB080008CC
:10087000EB080008EB080008EB080008EB0800088C
:10088000EB080008EB080008EB080008EB0800087C
:10089000EB080008EB080008EB080008EB0800086C
:1008A000BF080008402B0CD01FE000231EE00423EB
:1008B0001CE008231AE00C2318E0102316E0142390
:1008C00014E0182312E01C2310E000230EE00423A0
:1008D0000CE008230AE00C2308E0102306E01423B0
:1008E00004E0182302E01C2300E0002318460C3724
:1008F000BD4680BC704700BF90B585B000AF786042
:1009000039600023BB600023FB733B681B88FF2B0F
:1009100001D87B6801E07B680433BB603B681B88BF
:100920001846FFF731FF03461A460F239340DA4378
:10093000BB681B681A40BB681A603B689B78042B35
:100940000BD03B689B78052B07D03B689B78062B28
:1009500003D03B689B78072B0ED13B689B78043B08
:100960009B005AB23B68DB785BB213435BB2DBB2ED
:1009700003F00F03FB732CE03B689B78012B03D043
:100980003B689B78002B07D13B689B789B00DBB2D0
:1009900003F00F03FB731CE03B689B78082B02D12C
:1009A0000423FB7315E00823FB733B689B78022B41
:1009B00007D17B68DB683A6812881A437B68DA6083
:1009C00007E07B68DB683A681288D2431A407B688C
:1009D000DA60FC7B3B681B881846FFF7D5FE0346B0
:1009E00004FA03F2BB681B681A43BB681A6000BFB5
:1009F0001437BD4690BD80B483B000AF78600B461D
:100A00007B8013467B707B78002B03D07A887B68D1
:100A10001A6102E07A887B685A6100BF0C37BD46D4
:100A200080BC704780B483B000AF78600B467B8099
:100A30007A887B68DA6000BF0C37BD4680BC70479F
:100A4000B0B586B000AF786039600023FB82002328
:100A5000BB827F4B3B610023FB817B687D4A9342D5
:100A600010D17D4A3B6814461D460FCD0FC495E852
:100A70000F0084E80F00794BDB69784A43F40013D8
:100A8000D36114E07B68764A934210D1724B3A6886
:100A900003F1200415460FCD0FC495E80F0084E83C
:100AA0000F006E4BDB696D4A43F48003D3613B68F2
:100AB0009B68002B40F084807B685B68FB82FB8A2C
:100AC00023F03F03FB8200F0A3FA38613B69654ADB
:100AD000A2FB03239B0CBB82FA8ABB8A1343FB82D3
:100AE000FA8A7B685A607B681B6823F001027B6886
:100AF0001A600023FB823B681B684CF25032934221
:100B000004D03B681B68584A934212D13B681B686B
:100B10005B003A69B2FBF3F3FB81FA8AFB8913436A
:100B2000FB82FA8A7B68DA61BB8A01331A467B68EA
:100B30001A627B681B68FB823B685B699AB2FB8A1E
:100B40001343FB823B689B699AB2FB8A1343FB8287
:100B50003B689B689AB2FB8A1343FB823B685B68E5
:100B60009AB2FB8A1343FB82FA8A7B681A600023DD
:100B7000FB823B689B89012B0FD1FB8A43F0010369
:100B8000FB823B681B8A5B001AB2B7F9163013432D
:100B90001BB2FB82FA8A7B68DA600023FB823B6827
:100BA000DB895B001AB2B7F9163013431BB2FB8224
:100BB0003B685A8AFB8A1343FB82FA8A7B689A60F5
:100BC0003B68DB69002B38D07B685B6843F40072BC
:100BD0007B685A607B685B6843F480727B685A600C
:100BE0007B685B6843F480627B685A607B68194A63
:100BF00093420CD11D4B1B681C4A43F00043136009
:100C00001B4B1B681A4A43F0010313600FE07B681B
:100C1000134A93420BD1164B1B68154A43F002034B
:100C20001360134B1B68124A43F0040313607B6884
:100C300000225A617B6800229A617B681B6843F03E
:100C400001027B681A6000BF1837BD46B0BD00BF07
:100C500000127A000054004064000020001002409E
:100C60000058004083DE1B43A086010000E100E045
:100C700004E100E080B584B000AF78607B681F4A73
:100C8000934218D14023BB810723BB730123FB731D
:100C900007F10C0319461A48FFF72EFE8023BB818B
:100CA0000723BB730123FB7307F10C031946144898
:100CB000FFF722FE1DE07B68124A934219D14FF4E0
:100CC00080633B810723BB720123FB7207F108039A
:100CD00019460B48FFF710FE4FF400633B810723D2
:100CE000BB720123FB7207F1080319460448FFF7A2
:100CF00003FE00BF1037BD4680BD00BF005400405A
:100D0000000C01400058004080B586B000AFF8608C
:100D10007A603B600B467B8100237B6197F824302F
:100D20001A460121F86800F04BF800BF0121F8686D
:100D300000F0A8F80346002BF8D07B890022194662
:100D4000F86800F064F800BF0221F86800F09AF833
:100D50000346002BF8D000BF1849F86800F092F85D
:100D60000346002BF8D000237B6111E07B697A6891
:100D700013441B781A46FB681A6100BF0321F86808
:100D800000F080F80346002BF8D07B6901337B61CB
:100D90007B693A689A42E9D897F82030002B04D151
:100DA0000121F86800F052F803E00021F86800F033
:100DB0004DF800BF1837BD4680BD00BF800007005A
:100DC00080B582B000AF78600B46FB701346BB70F5
:100DD000BB78012B07D000BF0021786800F052F8E3
:100DE0000346002BF8D1FB78002B06D07B681B68EC
:100DF00043F480727B681A6005E07B681B6823F40B
:100E000080727B681A6000BF0837BD4680BD80B421
:100E100083B000AF78600B467B8013467B707B8885
:100E20005B007B807B78002B04D07B8843F0010340
:100E30007B8003E07B8823F001037B807A887B68DA
:100E40001A6100BF0C37BD4680BC704780B483B0C8
:100E500000AF78600B46FB70FB78002B06D07B68F8
:100E60001B6843F400727B681A6005E07B681B68AE
:100E700023F400727B681A6000BF0C37BD4680BC4B
:100E80007047000080B487B000AF786039600023FD
:100E90003B610023FB600023BB600023FB753B68C4
:100EA000052B11D83B68052B6AD801A252F823F014
:100EB000D30E0008EB0E0008030F0008510F0008C6
:100EC000510F0008690F00083B68304A934224D054
:100ED00056E07B689B6903F00203002B02D00123DC
:100EE000FB754DE00023FB754AE07B685B6903F00E
:100EF0000103002B02D00123FB7541E00023FB75A9
:100F00003EE07B685B6903F00203002B02D0012303
:100F1000FB7535E00023FB7532E07B685B693B6164
:100F20007B689B69FB60FB681B04FB603A69FB689C
:100F3000134323F07F43BB60BA683B6813403A68B1
:100F40009A4202D10123FB751AE00023FB7517E0DA
:100F50007B685B6903F08003002B02D00123FB75E3
:100F60000EE00023FB750BE07B685B6903F0400338
:100F7000002B02D00123FB7501E00023FB7500BFAD
:100F8000FB7D18461C37BD4680BC704780000700BB
:100F900080B400AF00BFBD4680BC704780B400AFD6
:100FA00000BFBD4680BC704780B400AF0B4B5B6890
:100FB0009B0803F00303022B0AD0022B0AD8002B54
:100FC00002D0012B02D005E0054B03E0054B01E008
:100FD000044BFFE71846BD4680BC70470010024036
:100FE00000127A000024F40080B500AFFFF7DCFFA8
:100FF0000246054B5B681B0903F00F030349CB5CFA
:1010000022FA03F3184680BD00100240B412000813
:1010100080B500AFFFF7E8FF0246054B5B681B0A8F
:1010200003F007030349CB5C22FA03F3184680BDA3
:1010300000100240AC12000880B582B000AF134B24
:101040009B685B0803F00103DAB23B7962F30003AB
:101050003B710E4B9B6803F00103DAB23B7962F3FC
:1010600041033B71094B9B681B0903F00103DAB292
:101070003B7962F382033B71054B1B685B693879EE
:10108000984700BF0837BD4680BD00BF0030014013
:10109000A400002080B582B000AF134B9B685B08B2
:1010A00003F00103DAB23B7962F300033B710E4BAC
:1010B0009B6803F00103DAB23B7962F341033B71B1
:1010C000094B9B681B0903F00103DAB23B7962F319
:1010D00082033B71054B5B685B693879984700BFB9
:1010E0000837BD4680BD00BF00380040A400002086
:1010F00080B500AF024B1B681B69984700BF80BDDD
:10110000AC00002080B500AF024B1B681B699847FC
:1011100000BF80BDAC00002080B500AF024B1B6853
:101120001B69984700BF80BDAC00002080B400AFB1
:101130000D4B9B690C4A43F0040393610A4B9B6976
:10114000094A43F008039361074B9B69064A43F041
:1011500001039361044B9B69034A43F010039361BD
:1011600000BFBD4680BC70470010024080B58EB005
:1011700002AFFFF7DBFFFEF7FBFFFFF779F8FFF7A2
:1011800095F91A4B1B781846FFF7D6F94CF25033F5
:10119000FB6080233B6100237B614FF480633B62F3
:1011A00040237B6230237B830023BB8300233B836C
:1011B0000023FB8307F10C0319460D48FFF740FCA1
:1011C0000B48FFF757FD0023BB60012387F82F3042
:1011D000084B7B6007F10802002301930023009372
:1011E000042320210248FFF78FFDFEE70A000020BC
:1011F00000540040544553540D488546AFF30080D9
:101200000C480D490D4A002302E0D458C450043361
:10121000C4188C42F9D30A4A0A4C002301E0136037
:101220000432A242FBD300F011F8FFF79FFFFEE764
:1012300000280020000000200C000020CC12000834
:101240000C000020B0000020FEE7000070B5002672
:101250000C4D0D4C641BA410A64209D100F01AF8E5
:1012600000260A4D0A4C641BA410A64205D170BD8D
:1012700055F8043B98470136EEE755F8043B98478C
:101280000136F2E7C4120008C4120008C4120008B4
:10129000C8120008F8B500BFF8BC08BC9E467047ED
:0C12A000F8B500BFF8BC08BC9E467047C3
:1012AC000000000001020304000000000000000028
:0812BC00010203040506070806
:0412C40055010008C8
:0412C80031010008E8
:0C12CC003F065B4F666D7D077F6F0300DF
:04000005080011F9E5
:00000001FF
