:020000040800F2
:10000000002800204D1900089D1900089D190008BE
:100010009D1900089D1900089D19000800000000A6
:100020000000000000000000000000009D19000812
:100030009D190008000000009D1900089D19000886
:100040009D1900089D1900089D1900089D190008B8
:100050009D1900089D190008F90B00081D0C0008E7
:10006000410C0008650C0008890C00089D19000867
:100070009D1900089D1900089D1900089D19000888
:100080009D1900089D1900089D1900089D19000878
:100090009D1900089D1900089D190008AD0C000865
:1000A0009D1900089D1900089D1900089D19000858
:1000B0009D1900089D1900089D190008FF100008EF
:1000C0000B1100089D1900089D190008A1140008D3
:1000D000FD140008591500086D1500088115000869
:1000E000550D00089D190008000000009D1900082A
:1000F0009D1900089D1900089D1900089D19000808
:100100009D1900089D1900089D1900089D190008F7
:100110009D1900089D1900089D1900089D190008E7
:100120009D1900089D1900089D1900089D190008D7
:1001300010B5054C237833B9044B13B10448AFF321
:1001400000800123237010BD380000200000000053
:10015000541E000808B5034B1BB103490348AFF315
:10016000008008BD000000003C000020541E000874
:1001700010F8012B11F8013B012A28BF9A42F7D051
:10018000D01A704780B582B000AF0223BB80042331
:10019000BB710123FB713B1D19462A4800F0F4FE98
:1001A0000423BB803B1D1946264800F0EDFE0823C2
:1001B000BB803B1D1946234800F0E6FE1023BB80A0
:1001C0003B1D19461F4800F0DFFE2023BB803B1D6E
:1001D00019461C4800F0D8FE4023BB803B1D194641
:1001E000184800F0D1FE8023BB803B1D19461548FE
:1001F00000F0CAFE01220221124800F05BFF01223A
:100200000421104800F056FF012208210D4800F09B
:1002100051FF012210210B4800F04CFF0122202148
:10022000084800F047FF01224021064800F042FF45
:1002300001228021034800F03DFF00BF0837BD4682
:1002400080BD00BF000C014080B582B000AF00232C
:100250007B608BE001222021494800F02BFF012226
:100260004021474800F026FF01228021444800F049
:1002700021FF444A7B6852F823309BB20022194682
:100280003F4800F017FF00233B6069E03E4A3B68AF
:1002900052F823309BB21946394800F0F4FE034669
:1002A000002B5AD100BF384A3B6852F823309BB22A
:1002B0001946334800F0E7FE0346002BF3D07B6875
:1002C000022B31D07B68022B47DC7B68002B03D0EC
:1002D0007B68012B14D040E03B68002B01D12A231E
:1002E00049E03B68012B01D1372344E03B68022BF6
:1002F00001D134233FE03B68032B29D131233AE07D
:100300003B68002B01D1302335E03B68012B01D144
:10031000382330E03B68022B01D135232BE03B68CA
:10032000032B17D1322326E03B68002B01D1232376
:1003300021E03B68012B01D139231CE03B68022BF3
:1003400001D1362317E03B68032B05D1332312E09C
:1003500000BF02E000BF00E000BF3B6801333B602C
:100360003B68032B92DD7B6801337B607B68022B4B
:100370007FF770AF412318460837BD4680BD00BFE8
:10038000000C0140100000200000002080B485B067
:1003900000AF78600023FB600BE00023BB6002E04D
:1003A000BB680133BB60BB68FE2BF9D9FB68013326
:1003B000FB60FA687B689A42EFD300BF00BF143736
:1003C000BD4680BC7047000080B582B000AF1420ED
:1003D000FFF7DCFF0423BB710123FB714FF40053D3
:1003E000BB803B1D19463B4800F0CEFD4FF48043D7
:1003F000BB803B1D1946374800F0C6FD4FF4004353
:10040000BB803B1D1946334800F0BEFD0423BB7181
:100410000123FB712023BB803B1D19462E4800F0B1
:10042000B3FD4023BB803B1D19462B4800F0ACFDBB
:100430008023BB803B1D1946274800F0A5FD4FF4E3
:100440008073BB803B1D1946234800F09DFD0022B0
:100450004FF400511F4800F02DFE00224FF40041E0
:100460001C4800F027FE00224FF48041194800F09C
:1004700021FE0F20FFF78AFF00F030F80223BB8037
:100480003B1D1946144800F07FFD0423BB803B1D33
:100490001946114800F078FD0823BB803B1D194622
:1004A0000D4800F071FD1023BB803B1D19460A4822
:1004B00000F06AFD382000F019F8062000F016F868
:1004C000802000F013F80F2000F010F800BF08376C
:1004D000BD4680BD001001400008014080B500AF5E
:1004E000012000F003F800BF80BD000080B582B09D
:1004F00000AF0346FB71FB7903F00103DBB21A4640
:1005000002212C4800F0D6FDFB7903F00203DBB298
:100510001A460421274800F0CDFDFB7903F00403BF
:10052000DBB21A460821234800F0C4FDFB7903F032
:100530000803DBB21A4610211E4800F0BBFDFB7910
:1005400003F01003DBB21A4620211A4800F0B2FD76
:10055000FB7903F02003DBB21A464021154800F076
:10056000A9FDFB7903F04003DBB21A468021114854
:1005700000F0A0FDFB7923F07F03DBB21A464FF4B5
:1005800080710C4800F096FD00224FF480410A482B
:1005900000F090FD00224FF40041074800F08AFD72
:1005A0000120FFF7F3FE00F0AFF800BF0837BD46AB
:1005B00080BD00BF000801400010014080B582B03E
:1005C00000AF0346FB71FB7903F00103DBB21A466F
:1005D00002212C4800F06EFDFB7903F00203DBB230
:1005E0001A460421274800F065FDFB7903F0040357
:1005F000DBB21A460821234800F05CFDFB7903F0CA
:100600000803DBB21A4610211E4800F053FDFB79A7
:1006100003F01003DBB21A4620211A4800F04AFD0D
:10062000FB7903F02003DBB21A464021154800F0A5
:1006300041FDFB7903F04003DBB21A4680211148EB
:1006400000F038FDFB7923F07F03DBB21A464FF44C
:1006500080710C4800F02EFD00224FF480410A48C2
:1006600000F028FD01224FF40041074800F022FD70
:100670000120FFF78BFE00F047F800BF0837BD46AA
:1006800080BD00BF000801400010014080B584B06B
:1006900000AF78600023FB602CE07B685A1C7A6016
:1006A0001B781846FFF78AFFFB68102B04D1002146
:1006B000022000F03FF81AE0FB68202B04D1002153
:1006C000032000F037F812E0FB68302B04D1002142
:1006D000042000F02FF80AE0FB683F2B07DDFFF74E
:1006E000FDFE0021012000F025F80023FB60FB68DF
:1006F0000133FB607B681B78002BCED100BF00BFAD
:100700001037BD4680BD000080B500AF01224FF418
:100710000051074800F0CEFC0A20FFF737FE002208
:100720004FF40051024800F0C5FC00BF80BD00BF7F
:100730000010014080B582B000AF03460A46FB714D
:100740001346BB71FB79012B09D1BB790F2B2CD838
:10075000BB79803BDBB21846FFF7C8FE25E0FB798A
:10076000022B09D1BB790F2B1FD8BB79403BDBB2E1
:100770001846FFF7BBFE18E0FB79032B09D1BB79C4
:100780000F2B12D8BB79703BDBB21846FFF7AEFED9
:100790000BE0FB79042B08D1BB790F2B05D8BB7973
:1007A000303BDBB21846FFF7A1FE00BF0837BD465D
:1007B00080BD000080B582B000AF4FF40073BB80F5
:1007C0000423BB710123FB713B1D19461B4800F03C
:1007D000DBFB4FF48063BB803B1D1946174800F0DC
:1007E000D3FB4FF40063BB803B1D1946134800F058
:1007F000CBFB4FF48053BB803B1D19460F4800F0E4
:10080000C3FB4FF40053BB803B1D19460B4800F05F
:10081000BBFB4FF48043BB803B1D1946074800F0EB
:10082000B3FB4FF40043BB803B1D1946034800F067
:10083000ABFB00BF0837BD4680BD00BF00080140CC
:1008400080B582B000AF0346FB71FB79064AD35CEA
:100850009BB25B029BB21946044800F042FC00BF09
:100860000837BD4680BD00BF1C00002000080140C5
:1008700080B483B000AF0346FB80FB880F2B54D8B5
:1008800001A252F823F000BFC9080008D7080008E9
:10089000E5080008F3080008010900080F0900082E
:1008A0000F0900080F0900080F0900080F090008C8
:1008B0001D0900081D0900081D0900081D09000880
:1008C0001D0900081D0900081A4B1B68194A43F04E
:1008D0004003136029E0174B1B68164A43F080035E
:1008E000136022E0134B1B68124A43F480731360B9
:1008F0001BE0104B1B680F4A43F40073136014E0B5
:100900000C4B1B680B4A43F4806313600DE0094BEA
:100910001B68084A43F40003136006E0064B1B689B
:10092000054A43F48073136000BF00BF0C37BD4617
:1009300080BC704700E100E004E100E080B483B0D7
:1009400000AF0346FB80FB880F2B54D801A252F85E
:1009500023F000BF95090008A3090008B1090008A9
:10096000BF090008CD090008DB090008DB09000801
:10097000DB090008DB090008DB090008E9090008B9
:10098000E9090008E9090008E9090008E90900087F
:10099000E90900081A4B1B68194A43F04003136029
:1009A00029E0174B1B68164A43F08003136022E0CE
:1009B000134B1B68124A43F4807313601BE0104B07
:1009C0001B680F4A43F40073136014E00C4B1B6860
:1009D0000B4A43F4806313600DE0094B1B68084A1F
:1009E00043F40003136006E0064B1B68054A43F41A
:1009F0008073136000BF00BF0C37BD4680BC7047DA
:100A000080E100E084E100E080B584B000AF786070
:100A10007B681B893B810123BB727B685B6807F1A4
:100A200008021146184600F0AFFA7B681B889B0845
:100A30009BB2FB737B681B88DBB203F00303DBB262
:100A40009B00BB735F4AFB7B023352F82320BB7BC6
:100A50000F2101FA03F3DB4318465A49FB7B02409E
:100A6000023341F82320574AFB7B023352F82320FC
:100A70007B685B6854498B4216D07B685B6853493E
:100A80008B420FD07B685B6851498B4208D07B68F2
:100A90005B6850498B4201D1032306E0002304E048
:100AA000022302E0012300E00023B97B8B401846BB
:100AB0004449FB7B0243023341F82320464B9B68A9
:100AC0007A681288114601228A40D2431146424A6E
:100AD0000B409360404BDB687A6812881146012214
:100AE0008A40D24311463C4A0B40D3607B681B7B53
:100AF000002B0BD1384B9B687A6812881146012273
:100B00008A401146344A0B43936029E07B681B7B83
:100B1000012B0BD1304BDB687A6812881146012219
:100B20008A4011462C4A0B43D36019E07B681B7B3B
:100B3000022B15D1284B9B687A6812881146012236
:100B40008A401146244A0B439360234BDB687A6842
:100B50001288114601228A4011461F4A0B43D36076
:100B60007B681B8819467B681B691C4A42F8213048
:100B70007B685B7B012B10D1174B1B687A6812884E
:100B8000114601228A401146134A0B4313607B68C9
:100B90001B881846FFF76CFE10E00F4B1B687A6845
:100BA0001288114601228A40D24311460A4A0B405C
:100BB00013607B681B881846FFF7C0FE00BF103724
:100BC000BD4680BD0000014000080140000C01400E
:100BD00000100140001401400004014054000020B6
:100BE00080B582B000AF78607868FFF70DFF00BF76
:100BF0000837BD4680BD000080B500AF054B5B697E
:100C0000044A43F001035361034B1B68984700BF3C
:100C100080BD00BF000401405400002080B500AF3B
:100C2000054B5B69044A43F002035361034B5B6865
:100C3000984700BF80BD00BF000401405400002061
:100C400080B500AF054B5B69044A43F00403536170
:100C5000034B9B68984700BF80BD00BF0004014064
:100C60005400002080B500AF054B5B69044A43F097
:100C700008035361034BDB68984700BF80BD00BF8A
:100C8000000401405400002080B500AF054B5B69B3
:100C9000044A43F010035361034B1B69984700BF9C
:100CA00080BD00BF000401405400002080B500AFAB
:100CB000264B5B6903F02003002B08D0234B5B69B4
:100CC000224A43F020035361214B5B6998471F4B35
:100CD0005B6903F04003002B08D01C4B5B691B4A87
:100CE00043F0400353611A4B9B699847174B5B696C
:100CF00003F08003002B08D0144B5B69134A43F0C8
:100D000080035361124BDB699847104B5B6903F416
:100D10008073002B08D00D4B5B690C4A43F4807341
:100D200053610B4B1B6A9847084B5B6903F40073D4
:100D3000002B08D0054B5B69044A43F400735361F0
:100D4000034B5B6A984700BF80BD00BF00040140B1
:100D50005400002080B500AF2D4B5B6903F4806325
:100D6000002B08D02A4B5B69294A43F48063536106
:100D7000284B9B6A9847264B5B6903F40063002B62
:100D800008D0234B5B69224A43F400635361214B33
:100D9000DB6A98471E4B5B6903F48053002B08D035
:100DA0001B4B5B691A4A43F480535361194B1B6B0D
:100DB0009847174B5B6903F40053002B08D0144B82
:100DC0005B69134A43F400535361124B5B6B9847C2
:100DD0000F4B5B6903F48043002B08D00C4B5B691D
:100DE0000B4A43F4804353610A4B9B6B9847084B73
:100DF0005B6903F40043002B08D0054B5B69044A90
:100E000043F400435361034BDB6B984700BF80BD45
:100E1000000401405400002080B483B000AF0346BA
:100E2000FB80FB88B3F5004F00F0A580B3F5004FC1
:100E300000F3A380B3F5804F00F09B80B3F5804FA3
:100E400000F39B80B3F5005F00F09180B3F5005F85
:100E500000F39380B3F5805F00F08780B3F5805F87
:100E600000F38B80B3F5006F7DD0B3F5006F00F316
:100E70008480B3F5806F74D0B3F5806F7DDCB3F5FB
:100E8000007F6CD0B3F5007F77DCB3F5807F64D052
:100E9000B3F5807F71DC802B5DD0802B6DDC202B47
:100EA00048DC002B69DD013B1F2B66D801A252F8FC
:100EB00023F000BF3B0F00083F0F00087B0F000826
:100EC000430F00087B0F00087B0F00087B0F000812
:100ED000470F00087B0F00087B0F00087B0F0008FE
:100EE0007B0F00087B0F00087B0F00087B0F0008BA
:100EF0004B0F00087B0F00087B0F00087B0F0008DA
:100F00007B0F00087B0F00087B0F00087B0F000899
:100F10007B0F00087B0F00087B0F00087B0F000889
:100F20007B0F00087B0F00087B0F00087B0F000879
:100F30004F0F0008402B0CD01FE000231EE00423BD
:100F40001CE008231AE00C2318E0102316E01423F9
:100F500014E0182312E01C2310E000230EE0042309
:100F60000CE008230AE00C2308E0102306E0142319
:100F700004E0182302E01C2300E0002318460C378D
:100F8000BD4680BC704700BF90B585B000AF7860AB
:100F900039600023BB600023FB733B681B88FF2B79
:100FA00001D87B6801E07B680433BB603B681B8829
:100FB0001846FFF731FF03461A460F239340DA43E2
:100FC000BB681B681A40BB681A603B689B78042B9F
:100FD0000BD03B689B78052B07D03B689B78062B92
:100FE00003D03B689B78072B0ED13B689B78043B72
:100FF0009B005AB23B68DB785BB213435BB2DBB257
:1010000003F00F03FB732CE03B689B78012B03D0AC
:101010003B689B78002B07D13B689B789B00DBB239
:1010200003F00F03FB731CE03B689B78082B02D195
:101030000423FB7315E00823FB733B689B78022BAA
:1010400007D17B68DB683A6812881A437B68DA60EC
:1010500007E07B68DB683A681288D2431A407B68F5
:10106000DA60FC7B3B681B881846FFF7D5FE034619
:1010700004FA03F2BB681B681A43BB681A6000BF1E
:101080001437BD4690BD80B485B000AF78600B4684
:101090007B807B689A687B881340002B02D00123F9
:1010A000FB7301E00023FB73FB7B18461437BD463E
:1010B00080BC704780B483B000AF78600B467B8003
:1010C00013467B707B78002B03D07A887B681A618B
:1010D00002E07A887B685A6100BF0C37BD4680BC4D
:1010E000704780B483B000AF78600B467B807A880D
:1010F0007B68DA6000BF0C37BD4680BC704780B4A7
:1011000000AF00BFBD4680BC704780B400AF00BFD9
:10111000BD4680BC70470000B0B485B000AF7860B9
:1011200039600023FB810023BB817B68454A9342E1
:1011300013D1454A3B6814461D460FCD0FC495E8B0
:10114000030084E80300414B3F4A1A60404B9B690F
:101150003F4A43F48053936116E07B683D4A9342D3
:1011600012D13D4A3B6814461D460FCD0FC495E889
:10117000030084E80300354B374A5A60344BDB697F
:10118000334A43F48043D3614023FB813B681A8890
:10119000FB891343FB813B685A88FB891343FB811E
:1011A0003B689A88FB891343FB813B68DA88FB899B
:1011B0001343FB813B681A89FB891343FB813B681E
:1011C0005A89FB891343FB813B689B89042B05D11A
:1011D0003B689A89BB891343BB8104E03B689A89C9
:1011E000FB891343FB813B68DA89FB891343FB814D
:1011F0003B681B8A002B19D03B681A8ABB891343B2
:10120000BB817B680F4A934206D1144B1B68134A7B
:1012100043F00803136009E07B680E4A934205D14E
:101220000E4B1B680D4A43F010031360FA897B686C
:101230001A60BA897B685A6000BF1437BD46B0BCDB
:10124000704700BF0030014098000020900000204F
:101250000010024000380040B000002004E100E02F
:1012600080B584B000AF78607B68734A934269D1DF
:10127000724B1B681B88042B34D1704B1B689B89F5
:10128000042B0CD11023BB810623BB730123FB73FA
:1012900007F10C0319466A48FFF776FE00BF2023CA
:1012A000BB810623BB730123FB7307F10C031946B3
:1012B0006348FFF769FE4023BB810123BB7307F13D
:1012C0000C0319465E48FFF75FFE8023BB810623AF
:1012D000BB730123FB7307F10C0319465848FFF752
:1012E00053FEA4E0554B1B689B89002B09D11023AA
:1012F000BB810123BB7307F10C0319465048FFF76C
:1013000043FE2023BB810123BB7307F10C03194665
:101310004B48FFF739FE4023BB810623BB730123F3
:10132000FB7307F10C0319464548FFF72DFE802398
:10133000BB810123BB7307F10C0319464048FFF73B
:1013400023FE74E07B683F4A934270D13B4B5B685D
:101350001B88042B38D1394B5B689B89042B0DD13A
:101360004FF48053BB810623BB730123FB7307F14A
:101370000C0319463448FFF707FE00BF4FF4005333
:10138000BB810623BB730123FB7307F10C031946D2
:101390002D48FFF7F9FD4FF48043BB810123BB7358
:1013A00007F10C0319462848FFF7EEFD4FF4004300
:1013B000BB810623BB730123FB7307F10C031946A2
:1013C0002148FFF7E1FD32E01C4B5B689B89002B55
:1013D0000AD14FF48053BB810123BB7307F10C0387
:1013E00019461948FFF7D0FD4FF40053BB81012384
:1013F000BB7307F10C0319461348FFF7C5FD4FF403
:101400008043BB810623BB730123FB7307F10C03ED
:1014100019460D48FFF7B8FD4FF40043BB81012387
:10142000BB7307F10C0319460748FFF7ADFD00BF7A
:101430001037BD4680BD00BF003001409000002045
:101440000008014000380040000C014080B485B025
:1014500000AFF860B9601346FB71FB79002B06D131
:1014600000BFFB689B6803F00203002BF9D0BB6848
:101470001B881A46FB68DA60FB79002B06D100BF97
:10148000FB689B6803F00103002BF9D0FB68DB6865
:101490009AB2BB681A8000BF1437BD4680BC704743
:1014A00080B582B000AF134B9B685B0803F001036B
:1014B000DAB23B7962F300033B710E4B9B6803F099
:1014C0000103DAB23B7962F341033B71094B9B683C
:1014D0001B0903F00103DAB23B7962F382033B712B
:1014E000054B1B685B693879984700BF0837BD46D4
:1014F00080BD00BF003001409000002080B582B068
:1015000000AF134B9B685B0803F00103DAB23B7931
:1015100062F300033B710E4B9B6803F00103DAB2E8
:101520003B7962F341033B71094B9B681B0903F054
:101530000103DAB23B7962F382033B71054B5B68CE
:101540005B693879984700BF0837BD4680BD00BF4A
:10155000003800409000002080B500AF024B1B68AF
:101560001B69984700BF80BDC800002080B500AF50
:10157000024B1B681B69984700BF80BDC800002054
:1015800080B500AF024B1B681B69984700BF80BD48
:10159000C800002080B400AF0D4B9B690C4A43F09B
:1015A000040393610A4B9B69094A43F00803936162
:1015B000074B9B69064A43F001039361044B9B6907
:1015C000034A43F01003936100BFBD4680BC7047DF
:1015D0000010024080B500AFFFF7DCFFFEF7D2FD40
:1015E000FEF7F2FEFFF7E6F800F018F800F04CF80E
:1015F000074B1B781846FFF723F9064B1B78002B87
:1016000002D1044800F0CCF9034800F04BFAF4E7AB
:1016100026000020CC0000202800002080B58CB0DF
:1016200000AF154A07F11C0307CA83E8070000232F
:1016300087F82830114BFB62012387F8293007F126
:101640001C031846FFF7CCFA0D4A07F11C0307CA22
:1016500083E80700002387F828300A4BFB62012348
:1016600087F8293007F11C031846FFF7B9FA00BFC5
:101670003037BD4680BD00BF6C1E0008251700082E
:10168000781E00083918000880B588B000AF012323
:101690007B8202233B8200237B810023FB8100238A
:1016A000BB811023FB8204233B814FF44073BB8238
:1016B00000233B830023FB614FF48053BB80042352
:1016C000BB710123FB713B1D19461448FFF75CFCFD
:1016D0004FF400633B800423BB700123FB703B4647
:1016E00019460E48FFF750FC07F1080319460C484D
:1016F000FFF712FD0A48FFF7B3FD01224FF48051B6
:101700000648FFF7D7FC01224FF400610348FFF7BA
:10171000D1FC00BF2037BD4680BD00BF000C01409A
:101720000038004080B582B000AF00237B6000220B
:101730004FF480513948FFF7BDFC00223849394841
:10174000FFF784FE364B1978374A7B6813440A4604
:101750001A707B6801337B607B68042BEDD101221A
:101760004FF480512D48FFF7A5FC00233B6013E0A8
:101770003A6813469B0013442C4A134419462A48DE
:10178000FEF7F6FC0346002B03D1294B01221A7009
:1017900005E03B6801333B603B68022BE8DD244BEE
:1017A0001B78002B1FD01E4B31221A7000224FF4E1
:1017B00080511A48FFF77EFC002219491948FFF7AB
:1017C00045FE01224FF480511448FFF773FC194B7A
:1017D0001B78013BDAB2174B1A70164B1B78184670
:1017E000FFF72EF813E00E4B30221A7000224FF450
:1017F00080510A48FFF75EFC002209490948FFF7BB
:1018000025FE01224FF480510448FFF753FC084B9A
:1018100000221A7000BF0837BD4680BD000C014091
:10182000CE00002000380040D0000020280000201A
:10183000CD0000202600002080B582B000AF00233C
:101840007B6000224FF400613948FFF733FC00222F
:1018500038493948FFF7FAFD364B1978374A7B6823
:1018600013440A461A707B6801337B607B68042B43
:10187000EDD101224FF400612D48FFF71BFC00233E
:101880003B6013E03A6813469B0013442C4A134410
:1018900019462A48FEF76CFC0346002B03D1294B5E
:1018A00001221A7005E03B6801333B603B68022B64
:1018B000E8DD244B1B78002B1FD01E4B31221A7001
:1018C00000224FF400611A48FFF7F4FB0022194987
:1018D0001948FFF7BBFD01224FF400611448FFF7E0
:1018E000E9FB194B1B780133DAB2174B1A70164B10
:1018F0001B781846FEF7A4FF13E00E4B30221A7037
:1019000000224FF400610A48FFF7D4FB0022094986
:101910000948FFF79BFD01224FF400610448FFF7DF
:10192000C9FB084B00221A7000BF0837BD4680BDB6
:10193000000C0140CE00002000380040D000002004
:1019400028000020CD000020260000200D488546FC
:10195000AFF300800C480D490D4A002302E0D45833
:10196000C4500433C4188C42F9D30A4A0A4C0023E9
:1019700001E013600432A242FBD300F047FAFFF704
:1019800029FEFEE70028002000000020380000208B
:101990008C1F000838000020D8000020FEE700005F
:1019A00080B586B000AF7860D223FB730023FB754F
:1019B00000233B61FEF792FD3448FEF767FE0621E7
:1019C0000420FEF7B7FE58E0FEF73EFC0346BB736B
:1019D000BB7BDBB2412B50D02A20FEF7EFFDFB7D15
:1019E0001A46920013445B00DAB2BB7BDBB21344AD
:1019F000DBB2303BFB753B6901333B613B69042B38
:101A00003BD100210420FEF795FEFA7BFB7D9A4234
:101A10001FD17B6801221A70FEF760FD02210120B0
:101A2000FEF788FE1A48FEF731FE03210220FEF77A
:101A300081FE1848FEF72AFE00210320FEF77AFEF9
:101A40001548FEF723FE6420FEF7A0FCFEF746FDD6
:101A500013E0FEF743FD1148FEF718FE00210220B7
:101A6000FEF768FE0E48FEF711FE06210420FEF781
:101A700061FE0023FB7500233B617B681B78002B14
:101A8000A2D000BF00BF1837BD4680BD841E00082D
:101A9000B41E0008C41E0008D01E0008E01E000886
:101AA000F01E000880B584B000AF78605C48FEF797
:101AB000EDFD00210220FEF73DFE5A48FEF7E6FD4F
:101AC00000210320FEF736FE5748FEF7DFFD002118
:101AD0000420FEF72FFE5548FEF7D8FDFEF7B4FBB5
:101AE0000346FB73FB7BFB7BDBB2313B102B00F22D
:101AF000958001A252F823F03D1B0008751B0008D9
:101B0000AD1B0008E51B00081D1C00081D1C00087B
:101B10001D1C00081D1C00081D1C00081D1C0008C1
:101B20001D1C00081D1C00081D1C00081D1C0008B1
:101B30001D1C00081D1C00081D1C0008786800F012
:101B400077F83748FEF7A2FD00210220FEF7F2FDEC
:101B50003448FEF79BFD00210320FEF7EBFD3248E1
:101B6000FEF794FD00210420FEF7E4FD2F48FEF768
:101B70008DFD54E0786800F0DBF82948FEF786FD1B
:101B800000210220FEF7D6FD2648FEF77FFD00214A
:101B90000320FEF7CFFD2448FEF778FD0021042046
:101BA000FEF7C8FD2148FEF771FD38E0786800F0C7
:101BB000C8F81B48FEF76AFD00210220FEF7BAFDB7
:101BC0001848FEF763FD00210320FEF7B3FD164819
:101BD000FEF75CFD00210420FEF7ACFD1348FEF784
:101BE00055FD1CE0786800F0B5F80D48FEF74EFD95
:101BF00000210220FEF79EFD0A48FEF747FD002166
:101C00000320FEF797FD0848FEF740FD0021042061
:101C1000FEF790FD0548FEF739FD00E000BF5DE7E7
:101C2000041F0008101F0008201F0008341F0008B0
:101C300080B588B000AF786000233B6100233B751E
:101C40000023FB770123FB750023BB61FEF746FCF5
:101C50003348FEF71BFD00210220FEF76BFD57E025
:101C6000FEF7F2FA0346FB73FB7BDBB2412B4FD04E
:101C7000FB7BDBB21846FEF7A1FC07F10F0107F171
:101C800010030122184600F09BF8BB690133BB61C9
:101C9000BB69042B3CD100210420FEF74BFDFB7DEA
:101CA000002B2CD00123FB771E4B1B781A461346C2
:101CB0009B0013447A68134407F11001042218466C
:101CC00000F091F8174B1B781A4613469B001344FB
:101CD0007A68134400221A71124B1B780133DAB26E
:101CE000104B1A7000210320FEF724FD0E48FEF76A
:101CF000CDFC6420FEF74AFBFEF7F0FB08E0002174
:101D00000320FEF717FD0948FEF7C0FC0023BB6166
:101D1000FB7F002BA4D000BF00BF2037BD4680BD95
:101D2000441F0008D5000020541F0008641F00084D
:101D300080B483B000AF786000BF0C37BD4680BC74
:101D4000704780B483B000AF786000BF0C37BD46E9
:101D500080BC704780B584B000AF78603023FB73DF
:101D6000FEF7BCFB0023BB6013E0BA6813469B0080
:101D700013447A6813441846FEF788FCBB68DBB24C
:101D80000233DBB200211846FEF7D4FCBB680133F6
:101D9000BB60BB68022BE8DD0848FEF777FC03E078
:101DA000FEF752FA0346FB73FB7B312BF8D1FEF7AB
:101DB00095FB00BF1037BD4680BD00BF741F0008F3
:101DC00030B50446257823460134002DFAD1013A76
:101DD00004D311F8014B03F8014B04B930BD002ABC
:101DE000F5D11A70F3E7034610B5013932B111F895
:101DF000014F013A03F8014B002CF7D100211A449E
:101E0000934200D110BD03F8011BF9E770B500261D
:101E10000C4D0D4C641BA410A64209D100F01AF819
:101E200000260A4D0A4C641BA410A64205D170BDC1
:101E300055F8043B98470136EEE755F8043B9847C0
:101E40000136F2E7841F0008841F0008841F000881
:101E5000881F0008F8B500BFF8BC08BC9E46704754
:0C1E6000F8B500BFF8BC08BC9E467047F7
:101E6C000A000000000C01400004280009000000DA
:101E7C00000C014000021700202020417320616EED
:101E8C002041646D696E2020202020506C656173A8
:101E9C006520456E746572202020202020506173CF
:101EAC0073776F72643A00003D3D20636F72726508
:101EBC006374203D3D00000077656C636F6D652099
:101ECC00746F000042656C6C6F2044617368626FC4
:101EDC00617264002057726F6E6720706173737744
:101EEC006F726400706C6561736520747279206127
:101EFC006761696E00000000313A2041444420497A
:101F0C0044000000323A2044656C657465204944F5
:101F1C0000000000333A2044656C65746520414C28
:101F2C004C20494473000000343A205669657720F0
:101F3C00416C6C2049447300456E746572204E658B
:101F4C00772049443A0000003D3D2053756363659A
:101F5C007373203D3D00000070617373776F726482
:101F6C00206578697374000070726573732031207A
:081F7C00746F206261636B00C9
:041F840055010008FB
:041F8800310100081B
:101F8C000200000004000000080000001000000027
:101F9C002000000040000000800000003F065B4F66
:101FAC00666D7D077F6F030030303030003030308D
:081FBC0030003030303000002D
:040000050800194D89
:00000001FF
